:020000040800F2
:10000000A097002075000208D5FB0108D7FB010866
:10001000D9FB0108DBFB0108DDFB01080000000043
:10002000000000000000000000000000271601088A
:10003000DFFB010800000000C9150108E5FB01080D
:10004000CD000208D1000208D5000208D90002083C
:10005000DD000208E1000208F5FB0108E9000208E2
:10006000ED000208F1000208F5000208F90002089C
:10007000FD00020801010208050102080901020849
:100080000D010208110102081501020819010208F8
:100090001D010208210102082501020829010208A8
:1000A0002D01020831010208350102083901020858
:1000B000FFFB01084101020845010208490102084D
:1000C0004D010208510102085501020859010208B8
:1000D0005D01020861010208650102086901020868
:1000E0006D010208772E01087501020879010208E6
:1000F0007D010208810102088501020889010208C8
:100100008D0102089101020817FC010899010208FB
:100110009D010208A1010208A5010208A901020827
:10012000AD01020879FC0108B5010208B901020815
:10013000BD010208C1010208C5010208C901020887
:10014000CD010208D1010208D5010208D901020837
:10015000DD010208E1010208E5010208E9010208E7
:10016000ED010208F1010208F5010208F901020897
:10017000FD01020803FC0108050202080902020849
:100180000D020208110202081502020819020208F3
:100190001D020208210202082502020829020208A3
:1001A0007BFC0108310202087FFC0108000000000E
:1001B000436C6F7365000000416C61726D0000005C
:1001C000496D61676500000021212120414C4152A9
:1001D0004D20212121000000FFFFFFFFFFFFFFFF57
:1001E000FFFFFFFFFFFFFFFFFFFFFFFFFFFFFFFF1F
:1001F000FFFFFFFFFFFFFFFFFFFFFFFFFFFFFFFF0F
:10020000FFFFFFFFFFFFFFFFFFFFFFFFFFFFFFFFFE
:10021000A6A6A6FF030303FF030303FF030303FFD5
:10022000070707FF343434FF3D3D3DFF353535FFCB
:10023000535353FF545454FF545454FF545454FFD5
:10024000545454FF545454FF545454FF545454FFC2
:100250005F5F5FFF757575FF818181FF868686FF11
:100260008B8B8BFF919191FF979797FF9C9C9CFFA5
:10027000A0A0A0FCA5A5A5E2ADADADB2B8B8B8836D
:10028000C4C4C461CECECE43D7D7D72ADCDCDC1AB7
:10029000E0E0E00CE3E3E306E4E4E401E3E3E307A6
:1002A000E3E3E30AE2E2E20AE4E4E401E3E3E30590
:1002B000E1E1E10ADDDDDD16D8D8D827D0D0D03B8A
:1002C000C5C5C55ABABABA7AAFAFAFA6A6A6A6D662
:1002D000A2A2A2F89D9D9DFF989898FF929292FFEE
:1002E0008C8C8CFF868686FF828282FF787878FFEE
:1002F000646464FF646464FFFFFFFFFFFFFFFFFFB0
:10030000FFFFFFFFFFFFFFFFFFFFFFFFFFFFFFFFFD
:10031000FFFFFFFFFFFFFFFFFFFFFFFFFFFFFFFFED
:10032000FFFFFFFFFFFFFFFFFFFFFFFFFFFFFFFFDD
:10033000FFFFFFFFFFFFFFFFFFFFFFFFFFFFFFFFCD
:10034000FFFFFFFFFFFFFFFFFFFFFFFFFFFFFFFFBD
:10035000FFFFFFFFFFFFFFFFFFFFFFFFFFFFFFFFAD
:10036000FFFFFFFFFFFFFFFFFFFFFFFFFFFFFFFF9D
:10037000FFFFFFFFFFFFFFFFFFFFFFFFFFFFFFFF8D
:10038000FFFFFFFFFFFFFFFFFFFFFFFFFFFFFFFF7D
:10039000FFFFFFFFFFFFFFFFFFFFFFFFFFFFFFFF6D
:1003A000A6A6A6FF030303FF030303FF030303FF44
:1003B000070707FF343434FF3D3D3DFF353535FF3A
:1003C000535353FF545454FF545454FF545454FF44
:1003D000545454FF545454FF545454FF545454FF31
:1003E0005F5F5FFF757575FF818181FF868686FF80
:1003F0008B8B8BFF919191F89E9E9EB4B6B6B6639F
:10040000D2D2D220E2E2E202DFDFDF00D3D3D30098
:10041000C7C7C700BABABA00AFAFAF00A5A5A5005D
:100420009C9C9C00989898009696960098989800A6
:10043000999999009999990096969600979797009F
:100440009B9B9B00A3A3A300AEAEAE00B9B9B900BD
:10045000C7C7C700D2D2D200DDDDDD00E3E3E30091
:10046000D6D6D614BBBBBB50A1A1A19E939393ED4E
:100470008C8C8CFF868686FF828282FF787878FF5C
:10048000646464FF646464FFFFFFFFFFFFFFFFFF1E
:10049000FFFFFFFFFFFFFFFFFFFFFFFFFFFFFFFF6C
:1004A000FFFFFFFFFFFFFFFFFFFFFFFFFFFFFFFF5C
:1004B000FFFFFFFFFFFFFFFFFFFFFFFFFFFFFFFF4C
:1004C000FFFFFFFFFFFFFFFFFFFFFFFFFFFFFFFF3C
:1004D000FFFFFFFFFFFFFFFFFFFFFFFFFFFFFFFF2C
:1004E000FFFFFFFFFFFFFFFFFFFFFFFFFFFFFFFF1C
:1004F000FFFFFFFFFFFFFFFFFFFFFFFFFFFFFFFF0C
:10050000FFFFFFFFFFFFFFFFFFFFFFFFFFFFFFFFFB
:10051000FFFFFFFFFFFFFFFFFFFFFFFFFFFFFFFFEB
:10052000FFFFFFFFFFFFFFFFFFFFFFFFFFFFFFFFDB
:10053000A6A6A6FF030303FF030303FF030303FFB2
:10054000070707FF343434FF3D3D3DFF353535FFA8
:10055000535353FF545454FF545454FF545454FFB2
:10056000545454FF545454FF545454FF545454FF9F
:100570005F5F5FFF757575FF818181FF868686EEFF
:100580009E9E9E84CBCBCB1CDDDDDD00CBCBCB0098
:10059000ACACAC00858585016666660B4C4C4C2581
:1005A00036363649252525631B1B1B791313138A01
:1005B0000F0F0F960D0D0D9E0B0B0BA6090909AC25
:1005C000070707B5090909AF0A0A0AA80C0C0CA10C
:1005D0000E0E0E991212128D1919197D2323236AFA
:1005E000333333504848482F626262108080800263
:1005F000A6A6A600C9C9C900DCDCDC00D3D3D30D94
:10060000A6A6A667888888DA828282FF787878FF33
:10061000646464FF646464FFFFFFFFFFFFFFFFFF8C
:10062000FFFFFFFFFFFFFFFFFFFFFFFFFFFFFFFFDA
:10063000FFFFFFFFFFFFFFFFFFFFFFFFFFFFFFFFCA
:10064000FFFFFFFFFFFFFFFFFFFFFFFFFFFFFFFFBA
:10065000FFFFFFFFFFFFFFFFFFFFFFFFFFFFFFFFAA
:10066000FFFFFFFFFFFFFFFFFFFFFFFFFFFFFFFF9A
:10067000FFFFFFFFFFFFFFFFFFFFFFFFFFFFFFFF8A
:10068000FFFFFFFFFFFFFFFFFFFFFFFFFFFFFFFF7A
:10069000FFFFFFFFFFFFFFFFFFFFFFFFFFFFFFFF6A
:1006A000FFFFFFFFFFFFFFFFFFFFFFFFFFFFFFFF5A
:1006B000FFFFFFFFFFFFFFFFFFFFFFFFFFFFFFFF4A
:1006C000A6A6A6FF030303FF030303FF030303FF21
:1006D000070707FF343434FF3D3D3DFF353535FF17
:1006E000535353FF545454FF545454FF545454FF21
:1006F000545454FF545454FF545454FF545454FF0E
:100700005F5F5FFF757575FE8C8C8CA6C6C6C61ABA
:10071000D2D2D200ACACAC00787878033F3F3F38FF
:1007200015151586040404C5000000EF000000FE46
:10073000000000FF000000FF000000FF000000FFBD
:10074000000000FF000000FF000000FF000000FFAD
:10075000000000FF000000FF000000FF000000FF9D
:10076000000000FF000000FF000000FF000000FF8D
:10077000000000FF000000FF000000F4030303D3AB
:10078000101010983636364C6F6F6F0AA7A7A70067
:10079000CFCFCF00D0D0D00A9595957C787878F6D9
:1007A000646464FF646464FFFFFFFFFFFFFFFFFFFB
:1007B000FFFFFFFFFFFFFFFFFFFFFFFFFFFFFFFF49
:1007C000FFFFFFFFFFFFFFFFFFFFFFFFFFFFFFFF39
:1007D000FFFFFFFFFFFFFFFFFFFFFFFFFFFFFFFF29
:1007E000FFFFFFFFFFFFFFFFFFFFFFFFFFFFFFFF19
:1007F000FFFFFFFFFFFFFFFFFFFFFFFFFFFFFFFF09
:10080000FFFFFFFFFFFFFFFFFFFFFFFFFFFFFFFFF8
:10081000FFFFFFFFFFFFFFFFFFFFFFFFFFFFFFFFE8
:10082000FFFFFFFFFFFFFFFFFFFFFFFFFFFFFFFFD8
:10083000FFFFFFFFFFFFFFFFFFFFFFFFFFFFFFFFC8
:10084000FFFFFFFFFFFFFFFFFFFFFFFFFFFFFFFFB8
:10085000A6A6A6FF030303FF030303FF030303FF8F
:10086000070707FF343434FF3D3D3DFF353535FF85
:10087000535353FF545454FF545454FF545454FF8F
:10088000545454FF545454FF545454FF545454FF7C
:100890005F5F5FF99292926BD4D4D4019F9F9F00C7
:1008A000757575032A2A2A56040404D0000000FE38
:1008B000000000FF000000FF000000FF000000FF3C
:1008C000000000FF000000FF000000FF000000FF2C
:1008D000000000FF000000FF000000FF000000FF1C
:1008E000000000FF000000FF000000FF000000FF0C
:1008F000000000FF000000FF000000FF000000FFFC
:10090000000000FF000000FF000000FF000000FFEB
:10091000000000FF000000FF020202E41E1E1E781D
:100920006C6C6C0CA0A0A000D0D0D000A3A3A33C02
:10093000656565E7646464FFFFFFFFFFFFFFFFFF7E
:10094000FFFFFFFFFFFFFFFFFFFFFFFFFFFFFFFFB7
:10095000FFFFFFFFFFFFFFFFFFFFFFFFFFFFFFFFA7
:10096000FFFFFFFFFFFFFFFFFFFFFFFFFFFFFFFF97
:10097000FFFFFFFFFFFFFFFFFFFFFFFFFFFFFFFF87
:10098000FFFFFFFFFFFFFFFFFFFFFFFFFFFFFFFF77
:10099000FFFFFFFFFFFFFFFFFFFFFFFFFFFFFFFF67
:1009A000FFFFFFFFFFFFFFFFFFFFFFFFFFFFFFFF57
:1009B000FFFFFFFFFFFFFFFFFFFFFFFFFFFFFFFF47
:1009C000FFFFFFFFFFFFFFFFFFFFFFFFFFFFFFFF37
:1009D000FFFFFFFFFFFFFFFFFFFFFFFFFFFFFFFF27
:1009E000A6A6A6FF030303FF030303FF030303FFFE
:1009F000070707FF343434FF3D3D3DFF353535FFF4
:100A00004D4D4DFF4E4E4EFF4E4E4EFF4E4E4EFF45
:100A10004E4E4EFF4E4E4EFF4E4E4EFF4F4F4FFD31
:100A200080808063C9C9C900797979005858581401
:100A3000090909B2000000FE000000FF000000FFED
:100A4000000000FF000000FF000000FF000000FFAA
:100A5000000000FF000000FF000000FF000000FF9A
:100A6000000000FF000000FF000000FF000000FF8A
:100A7000000000FF000000FF000000FF000000FF7A
:100A8000000000FF000000FF000000FF000000FF6A
:100A9000000000FF000000FF000000FF000000FF5A
:100AA000000000FF000000FF000000FF000000FF4A
:100AB000030303D84646463181818100BABABA00A1
:100AC00096969631636363EDFFFFFFFFFFFFFFFF25
:100AD000FFFFFFFFFFFFFFFFFFFFFFFFFFFFFFFF26
:100AE000FFFFFFFFFFFFFFFFFFFFFFFFFFFFFFFF16
:100AF000FFFFFFFFFFFFFFFFFFFFFFFFFFFFFFFF06
:100B0000FFFFFFFFFFFFFFFFFFFFFFFFFFFFFFFFF5
:100B1000FFFFFFFFFFFFFFFFFFFFFFFFFFFFFFFFE5
:100B2000FFFFFFFFFFFFFFFFFFFFFFFFFFFFFFFFD5
:100B3000FFFFFFFFFFFFFFFFFFFFFFFFFFFFFFFFC5
:100B4000FFFFFFFFFFFFFFFFFFFFFFFFFFFFFFFFB5
:100B5000FFFFFFFFFFFFFFFFFFFFFFFFFFFFFFFFA5
:100B6000FFFFFFFFFFFFFFFFFFFFFFFFFFFFFFFF95
:100B7000A6A6A6FF030303FF030303FF030303FF6C
:100B8000070707FF343434FF3D3D3DFF333333FF68
:100B90002E2E2EFF2E2E2EFF2E2E2EFF2E2E2EFF31
:100BA0002E2E2EFF2E2E2EFF2E2E2EFF5151519324
:100BB000C5C5C5016A6A6A0054545415030303D2BB
:100BC000000000FF000000FF000000FF000000FF29
:100BD000000000FF000000FF000000FF000000FF19
:100BE000000000FF000000FF000000FF000000FF09
:100BF000000000FF000000FF000000FF000000FFF9
:100C0000000000FF000000FF000000FF000000FFE8
:100C1000000000FF000000FF000000FF000000FFD8
:100C2000000000FF000000FF000000FF000000FFC8
:100C3000000000FF000000FF000000FF000000FFB8
:100C4000000000FF010101EE424242387575750057
:100C5000B6B6B6007B7B7B55B0B0B0FDB0B0B0FF90
:100C6000B0B0B0FFB0B0B0FFB0B0B0FFB0B0B0FF48
:100C7000B0B0B0FFB1B1B1FFB7B7B7FFBABABAFF02
:100C8000B6B6B6FFA7A7A7FFA4A4A4FFA4A4A4FF79
:100C9000BEBEBEFFFFFFFFFFFFFFFFFFFFFFFFFF27
:100CA000FFFFFFFFFFFFFFFFFFFFFFFFFFFFFFFF54
:100CB000FFFFFFFFFFFFFFFFFFFFFFFFFFFFFFFF44
:100CC000FFFFFFFFFFFFFFFFFFFFFFFFFFFFFFFF34
:100CD000FFFFFFFFFFFFFFFFFFFFFFFFFFFFFFFF24
:100CE000FFFFFFFFFFFFFFFFFFFFFFFFFFFFFFFF14
:100CF000FFFFFFFFFFFFFFFFFFFFFFFFFFFFFFFF04
:100D0000A6A6A6FF030303FF030303FF030303FFDA
:100D1000070707FF343434FF3D3D3DFF333333FFD6
:100D2000151515FF0C0C0CFF0C0C0CFF0C0C0CFF1C
:100D30000C0C0CFF0C0C0CFF121212D9A5A5A50C63
:100D40006B6B6B0067676704070707BE000000FF57
:100D5000000000FF000000FF000000FF000000FF97
:100D6000000000FF000000FF000000FF000000FF87
:100D7000000000FF000000FF000000FF000000FF77
:100D8000000000FF000000FF000000FF000000FF67
:100D9000000000FF000000FF000000FF000000FF57
:100DA000000000FF000000FF000000FF000000FF47
:100DB000000000FF000000FF000000FF000000FF37
:100DC000000000FF000000FF000000FF000000FF27
:100DD000000000FF000000FF020202E65A5A5A1CFF
:100DE0006A6A6A00B3B3B300232323A30B0B0BFF80
:100DF0000B0B0BFF0B0B0BFF0B0B0BFF0B0B0BFF73
:100E00000B0B0BFF1A1A1AFF363636FF404040FF15
:100E1000343434FF0B0B0BFF030303FF030303FF07
:100E20004A4A4AFFFFFFFFFFFFFFFFFFFFFFFFFFF1
:100E3000FFFFFFFFFFFFFFFFFFFFFFFFFFFFFFFFC2
:100E4000FFFFFFFFFFFFFFFFFFFFFFFFFFFFFFFFB2
:100E5000FFFFFFFFFFFFFFFFFFFFFFFFFFFFFFFFA2
:100E6000FFFFFFFFFFFFFFFFFFFFFFFFFFFFFFFF92
:100E7000FFFFFFFFFFFFFFFFFFFFFFFFFFFFFFFF82
:100E8000FFFFFFFFFFFFFFFFFFFFFFFFFFFFFFFF72
:100E9000A6A6A6FF030303FF030303FF030303FF49
:100EA000070707FF343434FF3D3D3DFF333333FF45
:100EB000141414FF000000FF000000FF000000FFFA
:100EC000000000FF000000FE484848529393930042
:100ED000656565001C1C1C70000000FF000000FF21
:100EE000000000FF000000FF000000FF000000FF06
:100EF000000000FF000000FF000000FF000000FFF6
:100F0000000000FF000000FF000000FF000000FFE5
:100F1000000000FF000000FF000000FF000000FFD5
:100F2000000000FF000000FF000000FF000000FFC5
:100F3000000000FF000000FF000000FF000000FFB5
:100F4000000000FF000000FF000000FF000000FFA5
:100F5000000000FF000000FF000000FF000000FF95
:100F6000000000FF000000FF000000FF0D0D0DB0AD
:100F700073737301757575007272721A010101F154
:100F8000000000FF000000FF000000FF000000FF65
:100F9000000000FF1D1D1DFF363636FF404040FF9C
:100FA000343434FF0B0B0BFF030303FF030303FF76
:100FB0004A4A4AFFFFFFFFFFFFFFFFFFFFFFFFFF60
:100FC000FFFFFFFFFFFFFFFFFFFFFFFFFFFFFFFF31
:100FD000FFFFFFFFFFFFFFFFFFFFFFFFFFFFFFFF21
:100FE000FFFFFFFFFFFFFFFFFFFFFFFFFFFFFFFF11
:100FF000FFFFFFFFFFFFFFFFFFFFFFFFFFFFFFFF01
:10100000FFFFFFFFFFFFFFFFFFFFFFFFFFFFFFFFF0
:10101000FFFFFFFFFFFFFFFFFFFFFFFFFFFFFFFFE0
:10102000A6A6A6FF030303FF030303FF030303FFB7
:10103000070707FF343434FF3D3D3DFF333333FFB3
:10104000212121FF000000FF000000FF000000FF41
:10105000000000FF050505D58C8C8C044747470030
:1010600057575713010101EC000000FF000000FF7B
:10107000000000FF000000FF000000FF000000FF74
:10108000000000FF000000FF000000FF000000FF64
:10109000000000FF000000FF000000FF000000FF54
:1010A000000000FF000000FF000000FF000000FF44
:1010B000000000FF000000FF000000FF000000FF34
:1010C000000000FF000000FF000000FF000000FF24
:1010D000000000FF000000FF000000FF000000FF14
:1010E000000000FF000000FF000000FF000000FF04
:1010F000000000FF000000FF000000FF000000FDF6
:10110000404040435C5C5C008E8E8E001919198A49
:10111000000000FF000000FF000000FF000000FFD3
:10112000000000FF2B2B2BFF363636FF404040FFE0
:10113000343434FF0B0B0BFF030303FF030303FFE4
:101140004A4A4AFFFFFFFFFFFFFFFFFFFFFFFFFFCE
:10115000FFFFFFFFFFFFFFFFFFFFFFFFFFFFFFFF9F
:10116000FFFFFFFFFFFFFFFFFFFFFFFFFFFFFFFF8F
:10117000FFFFFFFFFFFFFFFFFFFFFFFFFFFFFFFF7F
:10118000FFFFFFFFFFFFFFFFFFFFFFFFFFFFFFFF6F
:10119000FFFFFFFFFFFFFFFFFFFFFFFFFFFFFFFF5F
:1011A000FFFFFFFFFFFFFFFFFFFFFFFFFFFFFFFF4F
:1011B000A6A6A6FF030303FF030303FF030303FF26
:1011C000070707FF343434FF3D3D3DFF333333FF22
:1011D000292929FF020202FF000000FF000000FF92
:1011E000000000FF272727766E6E6E005F5F5F00AE
:1011F0001919197A000000FF000000FF000000FF2D
:10120000000000FF000000FF000000FF000000FFE2
:10121000000000FF000000FF000000FF000000FFD2
:10122000000000FF000000FF000000FF000000FFC2
:10123000000000FF000000FF000000FF000000FFB2
:10124000000000FF000000FF000000FF000000FFA2
:10125000000000FF000000FF000000FF000000FF92
:10126000000000FF000000FF000000FF000000FF82
:10127000000000FF000000FF000000FF000000FF72
:10128000000000FF000000FF000000FF000000FF62
:101290000A0A0ABA737373014E4E4E00565656220E
:1012A000000000FA000000FF000000FF000000FF47
:1012B000070707FF313131FF363636FF404040FF28
:1012C000343434FF0B0B0BFF030303FF030303FF53
:1012D0004A4A4AFFFFFFFFFFFFFFFFFFFFFFFFFF3D
:1012E000FFFFFFFFFFFFFFFFFFFFFFFFFFFFFFFF0E
:1012F000FFFFFFFFFFFFFFFFFFFFFFFFFFFFFFFFFE
:10130000FFFFFFFFFFFFFFFFFFFFFFFFFFFFFFFFED
:10131000FFFFFFFFFFFFFFFFFFFFFFFFFFFFFFFFDD
:10132000FFFFFFFFFFFFFFFFFFFFFFFFFFFFFFFFCD
:10133000FFFFFFFFFFFFFFFFFFFFFFFFFFFFFFFFBD
:10134000A6A6A6FF030303FF030303FF030303FF94
:10135000070707FF343434FF3D3D3DFF333333FF90
:101360002B2B2BFF101010FF000000FF000000FFD0
:10137000000000FC57575727474747006262620842
:10138000020202E0000000FF000000FF000000FF7A
:10139000000000FF000000FF0C0000FF360000FF0F
:1013A0003E0000FF2B0000FF0F0000FF000000FFC9
:1013B000000000FF000000FF000000FF000000FF31
:1013C000090909FF070707FF000000FF000000FFF1
:1013D000000000FF000000FF000000FF030303FF08
:1013E0000C0C0CFF010101FF000000FF000000FFDA
:1013F000000000FF000000FF090000FF2F0202FFB5
:101400004F0404FF530404FF1C0101FF000000FF10
:10141000000000FF000000FF000000FF000000FFD0
:10142000000000FB5050502D43434300747474007F
:10143000060606BE000000FF000000FF000000FFDF
:10144000171717FF323232FF363636FF404040FF63
:10145000343434FF0B0B0BFF030303FF030303FFC1
:101460004A4A4AFFFFFFFFFFFFFFFFFFFFFFFFFFAB
:10147000FFFFFFFFFFFFFFFFFFFFFFFFFFFFFFFF7C
:10148000FFFFFFFFFFFFFFFFFFFFFFFFFFFFFFFF6C
:10149000FFFFFFFFFFFFFFFFFFFFFFFFFFFFFFFF5C
:1014A000FFFFFFFFFFFFFFFFFFFFFFFFFFFFFFFF4C
:1014B000FFFFFFFFFFFFFFFFFFFFFFFFFFFFFFFF3C
:1014C000FFFFFFFFFFFFFFFFFFFFFFFFFFFFFFFF2C
:1014D000A6A6A6FF030303FF030303FF030303FF03
:1014E000070707FF343434FC3D3D3DFA333333FF07
:1014F0002B2B2BFF202020FF000000FF000000FF0F
:10150000020202DE737373035353530035353548BB
:10151000000000FF000000FF000000FF000000FFCF
:10152000070000FF360000FF610000FF660000FFBB
:10153000660000FF660000FF650000FF510000FF2D
:10154000250000FF040000FF060606FF1A1A1AFF16
:10155000272727FF0E0E0EFF000000FF000000FFF0
:10156000000000FF000000FF000000FF060606FF6D
:10157000262626FF1E1E1EFF0A0A0AFF000000FF85
:10158000120101FF550404FF920606FFA20707FFA0
:10159000A10707FFA10707FF9B0707FF6A0404FFD6
:1015A000160101FF000000FF000000FF000000FF27
:1015B000000000FF1A1A1A8A6666660061616100FF
:1015C0002121216C000000FF000000FF000000FF4F
:1015D000282828FF323232FF363636FF404040FF9F
:1015E000343434FF0B0B0BFF030303FF030303FF30
:1015F0004A4A4AFFFFFFFFFFFFFFFFFFFFFFFFFF1A
:10160000FFFFFFFFFFFFFFFFFFFFFFFFFFFFFFFFEA
:10161000FFFFFFFFFFFFFFFFFFFFFFFFFFFFFFFFDA
:10162000FFFFFFFFFFFFFFFFFFFFFFFFFFFFFFFFCA
:10163000FFFFFFFFFFFFFFFFFFFFFFFFFFFFFFFFBA
:10164000FFFFFFFFFFFFFFFFFFFFFFFFFFFFFFFFAA
:10165000FFFFFFFFFFFFFFFFFFFFFFFFFFFFFFFF9A
:10166000A9A9A9FF0C0C0CFF0C0C0CFF0C0C0CFF17
:101670000C0C0CBE6C6C6C23B0B0B0185555559565
:101680002C2C2CFF2C2C2CFF060606FF000000FF44
:10169000101010A47474740068686800111111921D
:1016A000000000FF000000FF000000FF1C0000FF22
:1016B000590000FF660000FF660000FF660000FFA3
:1016C000660000FF660000FF660000FF660000FF86
:1016D000660000FF530505FF232424FF252525FF71
:1016E000272727FF0E0E0EFF000000FF000000FF5F
:1016F000000000FF000000FF000000FF060606FFDC
:10170000262626FF252525FF252525FF461515FF1D
:101710009E0707FFA10707FFA10707FFA10707FF14
:10172000A10707FFA10707FFA10707FFA10707FF01
:10173000950606FF480303FF020000FF000000FFBC
:10174000000000FF040404D27171710241414100A4
:101750004D4D4D24000000FF000000FF070707FF6C
:10176000323232FF323232FF3A3A3AE26F6F6F74FE
:101770005A5A5A730B0B0BE5030303FF030303FFD2
:101780004A4A4AFFFFFFFFFFFFFFFFFFFFFFFFFF88
:10179000FFFFFFFFFFFFFFFFFFFFFFFFFFFFFFFF59
:1017A000FFFFFFFFFFFFFFFFFFFFFFFFFFFFFFFF49
:1017B000FFFFFFFFFFFFFFFFFFFFFFFFFFFFFFFF39
:1017C000FFFFFFFFFFFFFFFFFFFFFFFFFFFFFFFF29
:1017D000FFFFFFFFFFFFFFFFFFFFFFFFFFFFFFFF19
:1017E000FFFFFFFFFFFFFFFFFFFFFFFFFFFFFFFF09
:1017F000BBBBBBFF3E3E3EFF3E3E3EFF3E3E3EFD90
:101800005959592A44444400D2D2D200CBCBCB06FA
:10181000333333CE262626FF0D0D0DFF000000FFCB
:101820002D2D2D67676767006A6A6A00030303CC82
:10183000000000FF000000FF2B0000FF650000FF1C
:10184000660000FF660000FF660000FF660000FF04
:10185000660000FF660000FF660000FF660000FFF4
:10186000660000FF5B0707FF242525FF252525FFD0
:10187000272727FF0E0E0EFF000000FF000000FFCD
:10188000000000FF000000FF000000FF060606FF4A
:10189000262626FF252525FF252525FF571919FF73
:1018A000A10707FFA10707FFA10707FFA10707FF80
:1018B000A10707FFA10707FFA10707FFA10707FF70
:1018C000A10707FFA10707FF670404FF080000FF47
:1018D000000000FF000000F862626215343434003A
:1018E0006A6A6A01010101DA000000FF141414FFA2
:1018F0002F2F2FFF313131F69A9A9A2DECECEC0014
:10190000747474002A2A2A39252525FE262626FFE6
:10191000636363FFFFFFFFFFFFFFFFFFFFFFFFFFAB
:10192000FFFFFFFFFFFFFFFFFFFFFFFFFFFFFFFFC7
:10193000FFFFFFFFFFFFFFFFFFFFFFFFFFFFFFFFB7
:10194000FFFFFFFFFFFFFFFFFFFFFFFFFFFFFFFFA7
:10195000FFFFFFFFFFFFFFFFFFFFFFFFFFFFFFFF97
:10196000FFFFFFFFFFFFFFFFFFFFFFFFFFFFFFFF87
:10197000FFFFFFFFFFFFFFFFFFFFFFFFFFFFFFFF77
:10198000B4B4B4FF292929FF292929FF292929FDD0
:101990008B8B8B22696969005A5A5A00A9A9A9033D
:1019A000373737CB121212FF030303FF000000FC8E
:1019B0005C5C5C25525252005A5A5A11000000F3E6
:1019C000040000FF3F0000FF660000FF660000FF0C
:1019D000660000FF660000FF660000FF660000FF73
:1019E000660000FF660000FF660000FF660000FF63
:1019F000660000FF5B0707FF242525FF252525FF3F
:101A0000272727FF0E0E0EFF000000FF000000FF3B
:101A1000000000FF000000FF000000FF060606FFB8
:101A2000262626FF252525FF252525FF571919FFE1
:101A3000A10707FFA10707FFA10707FFA10707FFEE
:101A4000A10707FFA10707FFA10707FFA10707FFDE
:101A5000A10707FFA10707FFA10707FF7C0505FFF7
:101A6000130101FF000000FF40404046464646008B
:101A70006666660011111193000000FF080808FF58
:101A8000161616FF2D2D2DD5A7A7A7089D9D9D00E5
:101A9000393939009C9C9C08343434F3353535FF92
:101AA0006E6E6EFFFFFFFFFFFFFFFFFFFFFFFFFFF9
:101AB000FFFFFFFFFFFFFFFFFFFFFFFFFFFFFFFF36
:101AC000FFFFFFFFFFFFFFFFFFFFFFFFFFFFFFFF26
:101AD000FFFFFFFFFFFFFFFFFFFFFFFFFFFFFFFF16
:101AE000FFFFFFFFFFFFFFFFFFFFFFFFFFFFFFFF06
:101AF000FFFFFFFFFFFFFFFFFFFFFFFFFFFFFFFFF6
:101B0000FFFFFFFFFFFFFFFFFFFFFFFFFFFFFFFFE5
:101B1000AAAAAAFF0C0C0CFF0C0C0CFF0C0C0CFF5F
:101B200026262691737373127A7A7A00D3D3D30060
:101B30009595951B4242425B050505FD080808C8BE
:101B400084848400585858003131314B070000FF1D
:101B50004A0000FF660000FF660000FF660000FF0D
:101B6000660000FF660000FF660000FF660000FFE1
:101B7000660000FF660000FF660000FF660000FFD1
:101B8000660000FF5B0707FF242525FF252525FFAD
:101B9000272727FF0E0E0EFF000000FF000000FFAA
:101BA000000000FF000000FF000000FF060606FF27
:101BB000262626FF252525FF252525FF571919FF50
:101BC000A10707FFA10707FFA10707FFA10707FF5D
:101BD000A10707FFA10707FFA10707FFA10707FF4D
:101BE000A10707FFA10707FFA10707FFA10707FF3D
:101BF000900606FF1B0101FF1919198A6A6A6A001B
:101C0000424242003F3F3F3F000000FF010101FF11
:101C1000161616BB5E5E5E69DDDDDD017171710059
:101C2000818181005C5C5C480D0D0DFF0D0D0DFF89
:101C3000515151FFFFFFFFFFFFFFFFFFFFFFFFFFBE
:101C4000FFFFFFFFFFFFFFFFFFFFFFFFFFFFFFFFA4
:101C5000FFFFFFFFFFFFFFFFFFFFFFFFFFFFFFFF94
:101C6000FFFFFFFFFFFFFFFFFFFFFFFFFFFFFFFF84
:101C7000FFFFFFFFFFFFFFFFFFFFFFFFFFFFFFFF74
:101C8000FFFFFFFFFFFFFFFFFFFFFFFFFFFFFFFF64
:101C9000FFFFFFFFFFFFFFFFFFFFFFFFFFFFFFFF54
:101CA000A7A7A7FF040404FF040404FF040404FF1F
:101CB000040404FD1F1F1FD86C6C6C05808080001D
:101CC000E5E5E500D2D2D2001C1C1CA94B4B4B4EC3
:101CD000727272006C6C6C01130909AF520000FF44
:101CE000660000FB660000F2660000EC660000F390
:101CF000660000FC660000FF660000FF660000FF53
:101D0000660000FF660000FF660000FF660000FF3F
:101D1000660000FF5B0707FF242525FF252525FF1B
:101D2000272727FF0E0E0EFF000000FF000000FF18
:101D3000000000FF000000FF000000FF060606FF95
:101D4000262626FF252525FF252525FF571919FFBE
:101D5000A10707FFA10707FFA10707FFA10707FFCB
:101D6000A10707FFA10707FFA10707FFA10707FFBB
:101D7000A10707FEA10707F7A10707EDA10707EED7
:101D8000A10707F7980606FE2C0404E56767670DB0
:101D90003A3A3A0079797903050505D3050505E551
:101DA0008C8C8C11E8E8E8008181810071717100F0
:101DB00032323288090909DE060606FF060606FFEA
:101DC0004C4C4CFFFFFFFFFFFFFFFFFFFFFFFFFF3C
:101DD000FFFFFFFFFFFFFFFFFFFFFFFFFFFFFFFF13
:101DE000FFFFFFFFFFFFFFFFFFFFFFFFFFFFFFFF03
:101DF000FFFFFFFFFFFFFFFFFFFFFFFFFFFFFFFFF3
:101E0000FFFFFFFFFFFFFFFFFFFFFFFFFFFFFFFFE2
:101E1000FFFFFFFFFFFFFFFFFFFFFFFFFFFFFFFFD2
:101E2000FFFFFFFFFFFFFFFFFFFFFFFFFFFFFFFFC2
:101E3000A8A8A8FF070707FF070707FF070707FF6F
:101E4000070707FF090909DB71717103D2D2D200BC
:101E50009A9A9A00FBFBFB0085858511AAAAAA0124
:101E60007D7D7D003C272739680001907D00014978
:101E70008500011A8800010B880002058500010C0D
:101E800080000120780001536E00019F660000EF82
:101E9000660000FF660000FF660000FF660000FFAE
:101EA000660000FF5B0707FF242525FF252525FF8A
:101EB000272727FF0E0E0EFF000000FF000000FF87
:101EC000000000FF000000FF000000FF060606FF04
:101ED000262626FF252525FF252525FF571919FF2D
:101EE000A10707FFA10707FFA10707FFA10707FF3A
:101EF000A10707FFA10707FD9F0607C79A04057200
:101F0000960304339401031195010205970102071A
:101F1000990103119C0204309A04046E5716165955
:101F200075747400868686004E4E4E4E3C3C3C6274
:101F3000F0F0F000BBBBBB00C0C0C0007D7D7D00E9
:101F40000E0E0EC8060606FF050505FF050505FF72
:101F50004B4B4BFFFFFFFFFFFFFFFFFFFFFFFFFFAD
:101F6000FFFFFFFFFFFFFFFFFFFFFFFFFFFFFFFF81
:101F7000FFFFFFFFFFFFFFFFFFFFFFFFFFFFFFFF71
:101F8000FFFFFFFFFFFFFFFFFFFFFFFFFFFFFFFF61
:101F9000FFFFFFFFFFFFFFFFFFFFFFFFFFFFFFFF51
:101FA000FFFFFFFFFFFFFFFFFFFFFFFFFFFFFFFF41
:101FB000FFFFFFFFFFFFFFFFFFFFFFFFFFFFFFFF31
:101FC000A7A7A7FF050505FF050505FF050505FFF3
:101FD000050505FF050505FE25252555AEAEAE0018
:101FE000B4B4B400A9A9A900ACACAC009D9D9D00FF
:101FF000532D2D0088000205960002009B00010071
:102000009F000100A1000200A10002009D0002004B
:1020100098000200920002008D0002008400021469
:1020200072000184660000F5660000FF660000FF94
:10203000660000FF5B0707FF242525FF252525FFF8
:10204000272727FF0E0E0EFF000000FF000000FFF5
:10205000000000FF000000FF000000FF060606FF72
:10206000262626FF252525FF252525FF571919FF9B
:10207000A10707FFA10707FFA10707FFA10707FFA8
:102080009F0606C39703043C9000020292000200E0
:10209000970002009E000200A3000200A7000200B9
:1020A000A7000200A5000200A20002009F0002019A
:1020B0006718190184838300B4B4B401909090022E
:1020C000E2E2E2009C9C9C00C4C4C4003A3A3A1983
:1020D000010101EE010101FF010101FF010101FF09
:1020E000484848FFFFFFFFFFFFFFFFFFFFFFFFFF25
:1020F000FFFFFFFFFFFFFFFFFFFFFFFFFFFFFFFFF0
:10210000FFFFFFFFFFFFFFFFFFFFFFFFFFFFFFFFDF
:10211000FFFFFFFFFFFFFFFFFFFFFFFFFFFFFFFFCF
:10212000FFFFFFFFFFFFFFFFFFFFFFFFFFFFFFFFBF
:10213000FFFFFFFFFFFFFFFFFFFFFFFFFFFFFFFFAF
:10214000FFFFFFFFFFFFFFFFFFFFFFFFFFFFFFFF9F
:10215000A6A6A6FF030303FF030303FF030303FF76
:10216000030303FF030303FF050505DD4949491385
:1021700098989800A2A2A2008D8D8D00591F1F0073
:1021800096010300A5040500B2080900BD090A0074
:10219000C3080900C3050600C1010200BB0001001D
:1021A000B2000100A90002009F0002009600020098
:1021B000910002008100012F680000D6660000FF38
:1021C000660000FF5B0707FF242525FF252525FF67
:1021D000272727F83131317C484848394C4C4C3757
:1021E0004C4C4C374C4C4C374A4A4A37373737609F
:1021F000282828E7252525FF252525FF571919FF1C
:10220000A10707FFA10707FFA10707FA9C040577AD
:10221000940102069300020098000200A10002004F
:10222000AC000100B7000100BF000100C4030400BE
:10223000C6060700C4090A00BE090A00B407080060
:10224000AA030500780E0F006E656500A0A0A0002F
:1022500081818100AAAAAA016F6F6F000808089BFC
:10226000000000FF000000FF000000FF000000FF72
:10227000484848FFFFFFFFFFFFFFFFFFFFFFFFFF93
:10228000FFFFFFFFFFFFFFFFFFFFFFFFFFFFFFFF5E
:10229000FFFFFFFFFFFFFFFFFFFFFFFFFFFFFFFF4E
:1022A000FFFFFFFFFFFFFFFFFFFFFFFFFFFFFFFF3E
:1022B000FFFFFFFFFFFFFFFFFFFFFFFFFFFFFFFF2E
:1022C000FFFFFFFFFFFFFFFFFFFFFFFFFFFFFFFF1E
:1022D000FFFFFFFFFFFFFFFFFFFFFFFFFFFFFFFF0E
:1022E000A7A5A5FF040000FF040000FF040000FFF5
:1022F000040000FF000000FF000000F840404044E0
:10230000898989005F5858006D0F0F00A3090A00E2
:10231000B6141700C7222300D32C2D00D82F31006C
:10232000D82C2D00D6232400D1171700CB090A0082
:10233000C2010200B8000100AC000100A3000100CE
:102340009C000200980002008E0002156B0000C382
:10235000660000FF620303FF262424FF252525FFD6
:1023600038383889AEAEAE00DADADA00DDDDDD000D
:10237000DDDDDD00DDDDDD00DCDCDC00C1C1C10058
:102380004E4E4E4D252525FF252525FF6A1414FFA9
:10239000A10707FFA10707F69D0305539800030057
:1023A0009600020099000200A2000100AE000100A8
:1023B000BC000100C7040500CF0E0F00D41B1C0099
:1023C000D9252600DB2B2D00D92B2D00D226280065
:1023D000C51B1D00B5101100940909005D333300C1
:1023E000737373006565650312121270000000FBC1
:1023F000000000FF000000FF000000FF000000FFE1
:10240000484848FFFFFFFFFFFFFFFFFFFFFFFFFF01
:10241000FFFFFFFFFFFFFFFFFFFFFFFFFFFFFFFFCC
:10242000FFFFFFFFFFFFFFFFFFFFFFFFFFFFFFFFBC
:10243000FFFFFFFFFFFFFFFFFFFFFFFFFFFFFFFFAC
:10244000FFFFFFFFFFFFFFFFFFFFFFFFFFFFFFFF9C
:10245000FFFFFFFFFFFFFFFFFFFFFFFFFFFFFFFF8C
:10246000FFFFFFFFFFFFFFFFFFFFFFFFFFFFFFFF7C
:10247000C8A5A5FF630000FF630000FF630000FF25
:10248000620000FF500000FF2B0202B3423C3C0000
:10249000582223008F050600B0111300C52729001C
:1024A000D7404100E1545500E6606100E6636400F6
:1024B000E55E5F00E1535300DC3F3F00D429290073
:1024C000CC121200C2020300B5000100A9000100F5
:1024D000A2000100A1000200A40002009500021366
:1024E000690000D8660000FF2C0D0DFF111111FFCF
:1024F0001B1B1B58444444004A4A4A004A4A4A00AB
:102500004A4A4A004A4A4A004A4A4A00474747005C
:102510002525251E111111FD191111FF990808FF1C
:10252000A10707FD9F040560A30003009D000200B2
:10253000990002009E000100AA000100BA000100FB
:10254000C7070800D11A1A00D92F2F00E043430013
:10255000E5515100E8595A00E85B5C00E655560029
:10256000E0464800D3323400C11D1F00AF0A0C0002
:102570007D0E0E0055303100291010325E0404FD2E
:102580007E0606FF870606FF870606FF870606FF0C
:10259000A84C4CFFFFFFFFFFFFFFFFFFFFFFFFFF08
:1025A000FFFFFFFFFFFFFFFFFFFFFFFFFFFFFFFF3B
:1025B000FFFFFFFFFFFFFFFFFFFFFFFFFFFFFFFF2B
:1025C000FFFFFFFFFFFFFFFFFFFFFFFFFFFFFFFF1B
:1025D000FFFFFFFFFFFFFFFFFFFFFFFFFFFFFFFF0B
:1025E000FFFFFFFFFFFFFFFFFFFFFFFFFFFFFFFFFB
:1025F000FFFFFFFFFFFFFFFFFFFFFFFFFFFFFFFFEB
:10260000C9A5A5FF660000FF660000FF660000FF89
:10261000660000FF6D0000A8870002118F00010016
:10262000A7030400BC151700D1343500E05557004E
:10263000EA737400EF888900F1959600F299990089
:10264000F1949400ED868600E76F6F00DF52520030
:10265000D6323200CB141400C0020200B2000100D6
:10266000A8000100A5000200AC000200B1000300B8
:102670008C000235660000F9500202FF0F0D0DFFBD
:10268000141414AE4A4A4A036C6C6C006F6F6F00EE
:102690006F6F6F006F6F6F006E6E6E005656560054
:1026A0001C1C1C750E0E0EFF500909FFA10707FF29
:1026B000A00606A0AA000301AD000300A0000200CE
:1026C0009E000100A7000100B7000100C607070037
:1026D000D11E1E00DC3B3B00E4575700EC6F6F003F
:1026E000F0808000F3898A00F38A8B00F2848500F1
:1026F000EF757600E85E6000DD424400CC242600E1
:10270000B90C0E00A70102009A0002019C030454B8
:10271000A10707F0A10707FFA10707FFA10707FF10
:10272000BB4D4DFFFFFFFFFFFFFFFFFFFFFFFFFF61
:10273000FFFFFFFFFFFFFFFFFFFFFFFFFFFFFFFFA9
:10274000FFFFFFFFFFFFFFFFFFFFFFFFFFFFFFFF99
:10275000FFFFFFFFFFFFFFFFFFFFFFFFFFFFFFFF89
:10276000FFFFFFFFFFFFFFFFFFFFFFFFFFFFFFFF79
:10277000FFFFFFFFFFFFFFFFFFFFFFFFFFFFFFFF69
:10278000FFFFFFFFFFFFFFFFFFFFFFFFFFFFFFFF59
:10279000C9A5A5FF660000FF660000FF660000FFF8
:1027A0006F0001948900020396000100AD01020050
:1027B000C4111300D6333500E45B5C00ED81820068
:1027C000F4A0A100F9B5B500FBC1C100FCC4C40070
:1027D000FBBFBF00F8B3B300F29C9C00EA7C7C0016
:1027E000E1565600D62F2F00CB0E0E00BF00010081
:1027F000B4000100AF000200B4000200C0000300FA
:10280000B00003007300018E600101FF3A0C0CFF61
:102810001A1B1BFF232323C02B2B2B804040401867
:10282000404040005353530330303075232323A7D7
:102830001F1F1FFB241313FF7D0909FF870808EBE7
:10284000A7010415B9000300B5000300A9000200A8
:10285000AA000200B5000100C4030400D019190049
:10286000DC3A3A00E75E5E00EF7E7E00F697970066
:10287000FAA8A800FDB1B100FDB3B300FBACAD00F8
:10288000F89E9F00F3878800EC686A00E1454700E6
:10289000D2222400BE080900A9000200980002000C
:1028A00099030436A10707EFA10707FFA10707FF58
:1028B000BB4D4DFFFFFFFFFFFFFFFFFFFFFFFFFFD0
:1028C000FFFFFFFFFFFFFFFFFFFFFFFFFFFFFFFF18
:1028D000FFFFFFFFFFFFFFFFFFFFFFFFFFFFFFFF08
:1028E000FFFFFFFFFFFFFFFFFFFFFFFFFFFFFFFFF8
:1028F000FFFFFFFFFFFFFFFFFFFFFFFFFFFFFFFFE8
:10290000FFFFFFFFFFFFFFFFFFFFFFFFFFFFFFFFD7
:10291000FFFFFFFFFFFFFFFFFFFFFFFFFFFFFFFFC7
:10292000C9A5A5FF660000FF660000FF6B0000AFB1
:102930008500020393000100AC000200C5070800F7
:10294000D5262700E2515200EC7E7F00F5A5A600B7
:10295000FCC3C300FFD7D700FFE3E300FFE6E600B8
:10296000FFE2E200FED4D400FBBEBF00F49FA00053
:10297000EB767700E04A4B00D6202100CD0405001D
:10298000C3000100BE000200C2000300C00003003B
:102990006C060703180D0E9A0F0F10FF0F0F10FF94
:1029A0001A1A1AFF191919FF050505FF6A6A6A3113
:1029B00079797900B9B9B906464646EC1B1B1BFF6D
:1029C0001F1F1FFF111212FF0F0F10FF100F10EA31
:1029D000480B0C26A8030500C1000300B900020043
:1029E000BB000200C5000100D10D0E00DB2D2E0042
:1029F000E6555500F07C7D00F89E9F00FEB7B700BD
:102A0000FFCBCB00FFD6D600FFD8D800FFD0D00038
:102A1000FEBFBF00FBA8A800F4898A00EA63640037
:102A2000DF3B3C00D1171800BD020300A4000200E8
:102A30009300020097030445A10707FAA10707FFC7
:102A4000BB4D4DFFFFFFFFFFFFFFFFFFFFFFFFFF3E
:102A5000FFFFFFFFFFFFFFFFFFFFFFFFFFFFFFFF86
:102A6000FFFFFFFFFFFFFFFFFFFFFFFFFFFFFFFF76
:102A7000FFFFFFFFFFFFFFFFFFFFFFFFFFFFFFFF66
:102A8000FFFFFFFFFFFFFFFFFFFFFFFFFFFFFFFF56
:102A9000FFFFFFFFFFFFFFFFFFFFFFFFFFFFFFFF46
:102AA000FFFFFFFFFFFFFFFFFFFFFFFFFFFFFFFF36
:102AB000C9A5A5FF660000FF670000E67E000214BE
:102AC0008B000100A3000200BD000100CE12120025
:102AD000DA3A3A00E76B6B00F29A9A00FBC0C0004A
:102AE000FFDDDD00FFEEEE00FFF6F600FFF7F7007A
:102AF000FFF5F500FFEBEC00FFD7D800FAB9BA00FC
:102B0000F2919300E9616300E0313300D90C0E00CB
:102B1000D3000200CE00030092040600290C0D1120
:102B20000E0F10AC0E0F10FF1D0E0FFF820809FFD5
:102B3000880909FF090505FF000000FF757575315B
:102B400086868600CCCCCC06545454EC505050FFB2
:102B5000792727FFB40506FF4D0B0CFF0F0F10FF61
:102B60000E0F10EA160E0F4568080A00C001040097
:102B7000CD000200D4020400DB181A00E43F41003B
:102B8000EE6B6D00F7949600FDB5B600FFD3D30051
:102B9000FFE6E600FFF0F000FFF1F100FFEBEB00D5
:102BA000FFDCDC00FEC2C200F9A2A200F07C7C00C7
:102BB000E4505000D7262600CA070800B4000100E0
:102BC0009A0002008D0002009B050687A10707FFFF
:102BD000BB4D4DFFFFFFFFFFFFFFFFFFFFFFFFFFAD
:102BE000FFFFFFFFFFFFFFFFFFFFFFFFFFFFFFFFF5
:102BF000FFFFFFFFFFFFFFFFFFFFFFFFFFFFFFFFE5
:102C0000FFFFFFFFFFFFFFFFFFFFFFFFFFFFFFFFD4
:102C1000FFFFFFFFFFFFFFFFFFFFFFFFFFFFFFFFC4
:102C2000FFFFFFFFFFFFFFFFFFFFFFFFFFFFFFFFB4
:102C3000FFFFFFFFFFFFFFFFFFFFFFFFFFFFFFFFA4
:102C4000C9A5A5FF660000FF7200016684000200AE
:102C500095000200AE000100C2020300D01B1B0061
:102C6000DD494900EB7D7D00F6ADAD00FED1D10020
:102C7000FFECEC00FFF8F800FFFDFE00FFFEFE0099
:102C8000FFFCFD00FFF5F700FFE6E900FEC8CB0002
:102C9000F7A1A500EF717500E93E4100E3141700AC
:102CA000B6020500450A0B000F0F103C0E0F10DB9B
:102CB000130F10FF5D0A0BFFC90404FFD90303FFC4
:102CC000D90303FF9E0202FF0B0000FF75757531EB
:102CD00086868600CCCCCC06555353EC9B2929FF25
:102CE000D80404FFD90303FFD90303FF9D0607FFA0
:102CF0002A0D0EFF0E0F10FA0E0F1086250E0F086C
:102D00008E060800DD050800E6212400EC4B4E008D
:102D1000F37A7E00FBA3A600FFC6C900FFE4E6002D
:102D2000FFF5F600FFFCFD00FFFDFE00FFFAFA00D4
:102D3000FFEDED00FFD5D500FDB2B200F38D8D00A3
:102D4000E75F5F00DA313100CC0D0D00BB00010000
:102D5000A40001008E0002008D01030EA00707E40D
:102D6000BB4D4DFFFFFFFFFFFFFFFFFFFFFFFFFF1B
:102D7000FFFFFFFFFFFFFFFFFFFFFFFFFFFFFFFF63
:102D8000FFFFFFFFFFFFFFFFFFFFFFFFFFFFFFFF53
:102D9000FFFFFFFFFFFFFFFFFFFFFFFFFFFFFFFF43
:102DA000FFFFFFFFFFFFFFFFFFFFFFFFFFFFFFFF33
:102DB000FFFFFFFFFFFFFFFFFFFFFFFFFFFFFFFF23
:102DC000FFFFFFFFFFFFFFFFFFFFFFFFFFFFFFFF13
:102DD000C9A5A5FF660000E47E0002098800020084
:102DE0009D000100B0000100C1030300D0202000BD
:102DF000DE515100EC868600F8B5B500FFDADA0046
:102E0000FFF2F200FFFCFC00FFFEFF00FFFDFF00F1
:102E1000FFFCFF00FFF7FB00FFEBF000FECFD4004C
:102E2000FAA9AE00F4787E00DA3E42006711130082
:102E3000140E0F0A0E0F1085100F10F94B0C0CFF1B
:102E4000B80505FFD90303FFD90303FFD90303FF27
:102E5000D90303FFD90303FEA50202F78070702F88
:102E6000897E7E00CCC2C2069C2727E4D90303FDDD
:102E7000D90303FFD90303FFD90303FFD90303FFDA
:102E8000CF0404FF7E0909FF1E0E0FFF0E0F10CAAC
:102E90000E0F10313C0D0F00B61F2200F1515700EC
:102EA000F7818600FDA9AE00FFCFD300FFEAEE0058
:102EB000FFFAFD00FFFDFF00FFFEFF00FFFEFF0029
:102EC000FFF4F500FFDFDF00FEBBBB00F6959500C9
:102ED000E9676700DA373700CC111100BB00010049
:102EE000A700010092000200870002009905057BFF
:102EF000BB4D4DFFFFFFFFFFFFFFFFFFFFFFFFFF8A
:102F0000FFFFFFFFFFFFFFFFFFFFFFFFFFFFFFFFD1
:102F1000FFFFFFFFFFFFFFFFFFFFFFFFFFFFFFFFC1
:102F2000FFFFFFFFFFFFFFFFFFFFFFFFFFFFFFFFB1
:102F3000FFFFFFFFFFFFFFFFFFFFFFFFFFFFFFFFA1
:102F4000FFFFFFFFFFFFFFFFFFFFFFFFFFFFFFFF91
:102F5000FFFFFFFFFFFFFFFFFFFFFFFFFFFFFFFF81
:102F6000C9A5A5FF6E00018F810002008C00020040
:102F70009C000100AC000100BF030300CF21210031
:102F8000DE515100ED878700F9B6B600FFDBDB00AC
:102F9000FFF2F300FFFBFD00FFFDFF00FFFBFF0062
:102FA000FFFAFF00FFF5FB00FFE9F000FFCDD500C1
:102FB000F3A0A80090434700201112000E0F103B11
:102FC0000F0F10D1490B0CFFAE0506FFD90303FF0D
:102FD000D90303F7DB0E0ECDE2333395E963636764
:102FE000EE8C8C42F3ACAC25F7C9C915F6D7D703E4
:102FF000F7D6D600F8DADA00F7CDCD11F4B2B22167
:10300000EF95953AEA6D6D5DE43E3E89DD1414BF9F
:10301000D90303F0D90303FFC70404FF6D0A0AFFB5
:103020001C0E0FF60E0F107F110F10095E202200EC
:10303000DA6A6F00FEA7B000FFCDD400FFE8EE0013
:10304000FFF8FD00FFFBFF00FFFCFF00FFFDFF009E
:10305000FFF4F500FFDFE000FEBCBC00F696960032
:10306000E9686800DA383800CA111100B8000000B9
:10307000A400010093000100870002008E020322D9
:10308000BC4D4DFAFFFFFFFFFFFFFFFFFFFFFFFFFC
:10309000FFFFFFFFFFFFFFFFFFFFFFFFFFFFFFFF40
:1030A000FFFFFFFFFFFFFFFFFFFFFFFFFFFFFFFF30
:1030B000FFFFFFFFFFFFFFFFFFFFFFFFFFFFFFFF20
:1030C000FFFFFFFFFFFFFFFFFFFFFFFFFFFFFFFF10
:1030D000FFFFFFFFFFFFFFFFFFFFFFFFFFFFFFFF00
:1030E000FFFFFFFFFFFFFFFFFFFFFFFFFFFFFFFFF0
:1030F000C9A5A5FF75000149830002008C000200EC
:1031000098000100A7000000BB020200CC1C1C00BC
:10311000DD4A4A00EB7F7F00F7AEAE00FED2D3005F
:10312000FFECEE00FFF6F900FFFAFE00FFF9FF00EA
:10313000FFF6FE00FFEFF800FDDFE900B7858C0029
:10314000352022000E0F10110E0F10933B0C0DFABC
:10315000A80606FFD90303F2DF1E1EAAEB5D5D562B
:10316000F6AAAA16FDE2E200FFEAEA00FED3D300C7
:10317000FDB7B700FC9E9E00FC8A8A00FB7E7E00A5
:10318000FB777700FB7C7C00FC898900FC9B9B0023
:10319000FDB4B400FECFCF00FFE7E700FEE8E80093
:1031A000F8BABA0CED6E6E45E12A2A96DA0606E503
:1031B000C30404FF630A0BFF150F10D20E0F103F5C
:1031C0001A11120083484C00F1B2BC00FFDFE80086
:1031D000FFF0F800FFF8FE00FFFAFF00FFF8FB0029
:1031E000FFECEF00FFD6D700FDB3B400F48E8F00E4
:1031F000E7606000D8323200C70E0E00B400000055
:103200009E0001008F00010087000200870002027B
:10321000BB4C4CD4FFFFFFFFFFFFFFFFFFFFFFFF93
:10322000FFFFFFFFFFFFFFFFFFFFFFFFFFFFFFFFAE
:10323000FFFFFFFFFFFFFFFFFFFFFFFFFFFFFFFF9E
:10324000FFFFFFFFFFFFFFFFFFFFFFFFFFFFFFFF8E
:10325000FFFFFFFFFFFFFFFFFFFFFFFFFFFFFFFF7E
:10326000FFFFFFFFFFFFFFFFFFFFFFFFFFFFFFFF6E
:10327000FFFFFFFFFFFFFFFFFFFFFFFFFFFFFFFF5E
:10328000C9A5A5FC7A00011C840002008900010088
:1032900090000100A0000000B5000000C81313005A
:1032A000D93D3D00E86D6E00F49C9D00FCC1C3005B
:1032B000FFDCE000FFEBF000FFF0F700FFF0F800AC
:1032C000FFEDF600D8B9C200553D40000F0F1001C8
:1032D0000E0F1059290D0EE28B0808FFD70909D8E7
:1032E000E73F3F6CF6919114FED5D500FED4D40093
:1032F000FC9C9C00FA5E5E00F8333300F71B1B0059
:10330000F7101000F60B0B00F60A0A00F609090088
:10331000F6090900F6090900F60A0A00F60B0B0087
:10332000F70F0F00F7191900F82F2F00FA56560063
:10333000FC929200FECCCC00FFDBDB00F9A4A40AD7
:10334000EB505053DD1111C0B90505FE3E0C0DFBCD
:103350000E0F109D0E0F10162C191A00A9797F0060
:10336000FBD9E200FFE9F300FFECF400FFE8EE0018
:10337000FFDBDF00FFC2C400FAA4A500F07E7F00DF
:10338000E4535300D4282800C3080800AC00000010
:1033900096000100880001008500020085000200FF
:1033A000B74B4CA6FFFFFFFFFFFFFFFFFFFFFFFF35
:1033B000FFFFFFFFFFFFFFFFFFFFFFFFFFFFFFFF1D
:1033C000FFFFFFFFFFFFFFFFFFFFFFFFFFFFFFFF0D
:1033D000FFFFFFFFFFFFFFFFFFFFFFFFFFFFFFFFFD
:1033E000FFFFFFFFFFFFFFFFFFFFFFFFFFFFFFFFED
:1033F000FFFFFFFFFFFFFFFFFFFFFFFFFFFFFFFFDD
:10340000FFFFFFFFFFFFFFFFFFFFFFFFFFFFFFFFCC
:10341000C9A5A5F47D00020A85000200850001000F
:103420008900010098000000AF000000C4080800F7
:10343000D5292900E3555600EF828400F8A7AA0099
:10344000FDC2C700FFD5DC00FFDEE800EDCCD600F2
:1034500081656A00524C4C001D1E1F26140E0FBAC7
:10346000730909FED70909D7EA474759FA9696051D
:10347000FEC8C800FDAEAE00FA585800F81E1E0087
:10348000F60D0D00F6090900F6090900F60B0B0010
:10349000F60D0D00F60F0F00F6111100F6111100D8
:1034A000F6121200F6111100F6111100F6101000BC
:1034B000F60E0E00F60B0B00F6090900F6090900DE
:1034C000F60C0C00F71A1A00F94A4A00FC9F9F00FC
:1034D000FECCCC00FCA5A501EE58583CDC1212BC79
:1034E0009E0707FF2B0D0EEB0E0F10681212130430
:1034F00073575900D09DA500FFD3DD00FFCED50046
:10350000FFBEC400FCA9AC00F68C8E00EC6668001F
:10351000DF3E3F00D0191900BD020200A4000000E8
:103520008D0001008100010083000200850002007F
:10353000B44B4B8CFFFFFFFFFFFFFFFFFFFFFFFFC1
:10354000FFFFFFFFFFFFFFFFFFFFFFFFFFFFFFFF8B
:10355000FFFFFFFFFFFFFFFFFFFFFFFFFFFFFFFF7B
:10356000FFFFFFFFFFFFFFFFFFFFFFFFFFFFFFFF6B
:10357000FFFFFFFFFFFFFFFFFFFFFFFFFFFFFFFF5B
:10358000FFFFFFFFFFFFFFFFFFFFFFFFFFFFFFFF4B
:10359000FFFFFFFFFFFFFFFFFFFFFFFFFFFFFFFF3B
:1035A000C9A5A5F07F000208850002008200010085
:1035B0008300010091000100A7000000BF0102008C
:1035C000D1151600DF393A00EB606300F3848900FF
:1035D000F9A0A700F7ADB6009D6D7300392D2E0040
:1035E0002C2C2C0093939300A7A7A735AE2525ED8F
:1035F000E6343470FA848407FEABAB00FC9C9C007C
:10360000F9414100F70F0F00F6090900F60A0A0018
:10361000F60D0D00F6121200F5161600F41717003D
:10362000F1171700EE161600EB161600E816160036
:10363000E7161600E8161600EA161600ED16160034
:10364000F1171700F3171700F5161600F6121200FF
:10365000F60E0E00F60A0A00F6090900F60E0E0034
:10366000F8333300FB8E8E00FDB0B000FC9090016B
:10367000EB47474DD40808DC6A2222FF7373736C52
:10368000ADADAD003A37370082555800E490980050
:10369000FC9DA400F8888E00F16C7000E74A4C0095
:1036A000DA272800CB0B0B00B50000009B000000C0
:1036B000850001007B0001008100020087000200FC
:1036C000B44A4B85FFFFFFFFFFFFFFFFFFFFFFFF38
:1036D000FFFFFFFFFFFFFFFFFFFFFFFFFFFFFFFFFA
:1036E000FFFFFFFFFFFFFFFFFFFFFFFFFFFFFFFFEA
:1036F000FFFFFFFFFFFFFFFFFFFFFFFFFFFFFFFFDA
:10370000FFFFFFFFFFFFFFFFFFFFFFFFFFFFFFFFC9
:10371000FFFFFFFFFFFFFFFFFFFFFFFFFFFFFFFFB9
:10372000FFFFFFFFFFFFFFFFFFFFFFFFFFFFFFFFA9
:10373000C9A5A5F88100020D8800020083000100E0
:10374000810001008D000100A2000100BA0001000B
:10375000CE050600DD1C1D00E83B3E00F05A5F0070
:10376000BB565B003C2022000E0F10081617186C89
:10377000676767205D5D5D00DCACAC00EF707011C9
:10378000FE919100FC909000F94A4A00F70F0F005B
:10379000F6090900F60B0B00F6111100F4161600DD
:1037A000F0171700E6161600D5141400C212120006
:1037B000AF1010009F0F0F00951412008F17150007
:1037C0008C1917008E171500931513009C100F000D
:1037D000AA101000BE121200D1141400E215150038
:1037E000EE171700F4161600F6121200F60C0C0075
:1037F000F6090900F60C0C00F93B3B00FC8C8C0030
:10380000FE949400F875750CC9404080D8D6D60D4A
:103810007373730080808003202122201D11120009
:103820008C3D4100ED5C6100EE474C00E42B2D0027
:10383000D8111200C7020300AE000100940001007D
:10384000800001007B000100830002008A0002006A
:10385000B64B4C93FFFFFFFFFFFFFFFFFFFFFFFF94
:10386000FFFFFFFFFFFFFFFFFFFFFFFFFFFFFFFF68
:10387000FFFFFFFFFFFFFFFFFFFFFFFFFFFFFFFF58
:10388000FFFFFFFFFFFFFFFFFFFFFFFFFFFFFFFF48
:10389000FFFFFFFFFFFFFFFFFFFFFFFFFFFFFFFF38
:1038A000FFFFFFFFFFFFFFFFFFFFFFFFFFFFFFFF28
:1038B000FFFFFFFFFFFFFFFFFFFFFFFFFFFFFFFF18
:1038C000C9A5A5FE7F00022A8E0002008A00020020
:1038D000860001008E000100A1000100B800010077
:1038E000CD000200DE060800CB161A005917190099
:1038F0000F0E0F020E0F10510E0F10D73C1C1CFFA5
:10390000785252A4BB696901FA7E7E00FD8484006E
:10391000FA5E5E00F71B1B00F6090900F60B0B00B0
:10392000F5121200F2161600E7161600CE13130059
:10393000AC1111008E1A18007F362F007B51460003
:103940007E685900837969008683720089877600D2
:103950008A8B79008A89780088867400857E6D005C
:10396000806E5F007C574B007E3D350089201D0036
:10397000A4111000C6131300E2151500F01616006E
:10398000F5131300F60C0C00F6090900F7141400E7
:10399000FA565600FC848400FD858500E0777700A8
:1039A0007A6C6C0076767658222324F60E0F1090EF
:1039B0000E0F101531121300A91D2000E30F130084
:1039C000D8020400C3000200AA0001009200010016
:1039D00083000100820002008B00020090000200C0
:1039E000B94C4CB6FFFFFFFFFFFFFFFFFFFFFFFFDC
:1039F000FFFFFFFFFFFFFFFFFFFFFFFFFFFFFFFFD7
:103A0000FFFFFFFFFFFFFFFFFFFFFFFFFFFFFFFFC6
:103A1000FFFFFFFFFFFFFFFFFFFFFFFFFFFFFFFFB6
:103A2000FFFFFFFFFFFFFFFFFFFFFFFFFFFFFFFFA6
:103A3000FFFFFFFFFFFFFFFFFFFFFFFFFFFFFFFF96
:103A4000FFFFFFFFFFFFFFFFFFFFFFFFFFFFFFFF86
:103A5000C9A5A5FF79000162980003009600020045
:103A60009300020098000200A7000200BD000200BF
:103A7000C600020074060800190E0F010E0F103C5C
:103A80000E0F10BF0F0F10FE6B090AFFD50404F0D4
:103A9000EB3F3F4BFD828200FC6D6D00F935350038
:103AA000F60D0D00F60A0A00F6101000F2161600C8
:103AB000E2151500BE121200931715007D3E350069
:103AC0007E695A00878574008E8C7E0095948700ED
:103AD0009C9B8F00A3A29700A9A89D00AEADA20059
:103AE000B0AFA400B1B0A500B0AFA400ACAB9F00D4
:103AF000A6A59900A09F910098968700908E7D00C2
:103B0000847565007E4A3F008B1D1A00B3111100B9
:103B1000DC151500F0161600F5111100F60A0A0062
:103B2000F60A0A00F82D2D00FB696900FE83830068
:103B3000E76C6C01A23030BC8F1212FF1E0E0FFF1B
:103B40000E0F10EC0E0F10750F0F100D4C0B0C001C
:103B5000B5030500C6000200AF0002009A00020093
:103B600090000200910002009700020098010308F3
:103B7000BB4D4DE6FFFFFFFFFFFFFFFFFFFFFFFF16
:103B8000FFFFFFFFFFFFFFFFFFFFFFFFFFFFFFFF45
:103B9000FFFFFFFFFFFFFFFFFFFFFFFFFFFFFFFF35
:103BA000FFFFFFFFFFFFFFFFFFFFFFFFFFFFFFFF25
:103BB000FFFFFFFFFFFFFFFFFFFFFFFFFFFFFFFF15
:103BC000FFFFFFFFFFFFFFFFFFFFFFFFFFFFFFFF05
:103BD000FFFFFFFFFFFFFFFFFFFFFFFFFFFFFFFFF5
:103BE000C9A5A5FF6C0000B19E000300A900030059
:103BF000A7000300AC000200B50003008604050026
:103C0000270C0D000E0F10330E0F10B00E0F10FC0E
:103C10001B0E0FFF980707FFD90505E8EE4A4A3E3D
:103C2000FD7F7F00FB585800F71E1E00F6090900B3
:103C3000F60C0C00F4151500E8161600C21212005E
:103C40008F1917007B4D4200847E6D008E8D7E00A3
:103C500099988B00A6A59A00B4B3AA00C1C0B80079
:103C6000CCCBC400C5C5BF008B8B88008B8B880074
:103C7000D6D6D10077777400848482006A6A6700A0
:103C8000D1D1CA00D1D0C800C8C7BE00BCBBB000EB
:103C9000AFADA0009F9E8F00908D7C00805F510093
:103CA00087231F00B5111100E2151500F21515004C
:103CB000F60D0D00F6090900F7191900FA51510027
:103CC000FD7E7E00F55F5F1CDC0C0CCBBA0505FFAA
:103CD000340D0EFF0E0F10FF0E0F10E20E0F1069C5
:103CE000150F100A63090A00AF010400AD000300BC
:103CF000A5000200A5000300A60003009D030540E7
:103D0000BB4D4DFEFFFFFFFFFFFFFFFFFFFFFFFF6C
:103D1000FFFFFFFFFFFFFFFFFFFFFFFFFFFFFFFFB3
:103D2000FFFFFFFFFFFFFFFFFFFFFFFFFFFFFFFFA3
:103D3000FFFFFFFFFFFFFFFFFFFFFFFFFFFFFFFF93
:103D4000FFFFFFFFFFFFFFFFFFFFFFFFFFFFFFFF83
:103D5000FFFFFFFFFFFFFFFFFFFFFFFFFFFFFFFF73
:103D6000FFFFFFFFFFFFFFFFFFFFFFFFFFFFFFFF63
:103D7000C9A5A5FF660000F88D000223B00003006E
:103D8000BA000300990205003B0A0B010F0F103621
:103D90000E0F10AE0E0F10FB0E0F10FF310D0EFFA9
:103DA000B80505FFDA0505EBF049492DFD7A7A00E3
:103DB000FA4A4A00F7131300F6090900F60F0F003C
:103DC000F1161600D71414009D1211007C4339001F
:103DD000847E6D00908F81009E9E9300B2B1A800FA
:103DE000C5C4BD00D5D4CF00DEDEDA00E7E7E500CC
:103DF000ECECE900D9D9D8004D4E4E00818181000C
:103E0000C5C5C50047474800DBDBDA000E0F1000D0
:103E1000C1C1BF00ECECE900E9E9E500E4E4DE0043
:103E2000DCDBD400CFCEC400BEBDB000A9A8990091
:103E300094927F0080594C0091181600CB13130008
:103E4000EE161600F5101000F6090900F710100024
:103E5000F9414100FC797900F65D5D11DC0B0BCB7B
:103E6000D30304FF560B0BFF0E0F10FF0E0F10FFB6
:103E70000E0F10DE0E0F106A210E0F0C79070800CE
:103E8000B6010300B5000300A60003019F0606A9C2
:103E9000BB4D4DFFFFFFFFFFFFFFFFFFFFFFFFFFDA
:103EA000FFFFFFFFFFFFFFFFFFFFFFFFFFFFFFFF22
:103EB000FFFFFFFFFFFFFFFFFFFFFFFFFFFFFFFF12
:103EC000FFFFFFFFFFFFFFFFFFFFFFFFFFFFFFFF02
:103ED000FFFFFFFFFFFFFFFFFFFFFFFFFFFFFFFFF2
:103EE000FFFFFFFFFFFFFFFFFFFFFFFFFFFFFFFFE2
:103EF000FFFFFFFFFFFFFFFFFFFFFFFFFFFFFFFFD2
:103F0000C9A5A5FF660000FF7100019E980103008E
:103F100051080906120E0F4E0E0F10BB0E0F10FCAB
:103F20000E0F10FF0E0F10FF4C0B0CFFD10304FF00
:103F3000D90303F2EE3F3F3FFD767600FA45450098
:103F4000F70F0F00F6090900F5111100EC16160025
:103F5000C4121200861F1C007F6C5D008D8B7D00DB
:103F60009D9C9100B3B3AA00CBCBC400DDDDD8008B
:103F7000E8E8E600EEEEEC00D6D6D500F1F1F1006F
:103F8000F2F2F200F2F2F2005C5D5E0081828200E9
:103F9000F2F2F200D1D1D1007F80800090919100A7
:103FA000EFEFEF00F2F1F100F1F1F000F0F0EE00D0
:103FB000EEEEEB00EBEAE600E3E3DC00D7D6CC0064
:103FC000C3C1B400A9A898008F85740081312A006C
:103FD000B5111100E7161600F4131300F60A0A00D3
:103FE000F60D0D00F93C3C00FC757500F554541BB2
:103FF000DB0707D9D90303FF790909FF100F10FF69
:104000000E0F10FF0E0F10FF0E0F10E50E0F107E9B
:10401000310C0D1C8B040600A1030430A10707FA24
:10402000BB4D4DFFFFFFFFFFFFFFFFFFFFFFFFFF48
:10403000FFFFFFFFFFFFFFFFFFFFFFFFFFFFFFFF90
:10404000FFFFFFFFFFFFFFFFFFFFFFFFFFFFFFFF80
:10405000FFFFFFFFFFFFFFFFFFFFFFFFFFFFFFFF70
:10406000FFFFFFFFFFFFFFFFFFFFFFFFFFFFFFFF60
:10407000FFFFFFFFFFFFFFFFFFFFFFFFFFFFFFFF50
:10408000FFFFFFFFFFFFFFFFFFFFFFFFFFFFFFFF40
:10409000C9A5A5FF660000FF650000FB1B0D0EA66D
:1040A0000E0F10E40E0F10FE0E0F10FF0E0F10FF7C
:1040B0000E0F10FF650A0AFFD80303FFD90303FCA4
:1040C000E92C2C55FD6F6F00FA484800F70E0E00E2
:1040D000F6090900F5121200E9161600B3111100D5
:1040E0007D362F0084806F0094938600ABAAA100D8
:1040F000C7C6C000DDDDD900EAEAE700EFEFEE0059
:10410000F0F0F000EBEBEB00BEBEBE00D1D1D10071
:10411000F2F2F200DFDFDF00464647006262630032
:10412000B6B6B600242425003A3A3B003A3A3B00A2
:10413000A4A4A500F2F2F200F2F2F200F2F2F20010
:10414000F2F1F100F1F1EF00EFEFED00EDEDE8003D
:10415000B5B5AF00CBCAC000BCBAAC009E9C89000C
:1041600081504500A1111000E0151500F414140051
:10417000F60A0A00F60D0D00F93E3E00FC707000D4
:10418000F1414127D90303EFD90303FFA60606FF38
:10419000190E0FFF0E0F10FF0E0F10FF0E0F10FF66
:1041A0000E0F10F8100F10BC74090AD2A10707FFF8
:1041B000BB4D4DFFFFFFFFFFFFFFFFFFFFFFFFFFB7
:1041C000FFFFFFFFFFFFFFFFFFFFFFFFFFFFFFFFFF
:1041D000FFFFFFFFFFFFFFFFFFFFFFFFFFFFFFFFEF
:1041E000FFFFFFFFFFFFFFFFFFFFFFFFFFFFFFFFDF
:1041F000FFFFFFFFFFFFFFFFFFFFFFFFFFFFFFFFCF
:10420000FFFFFFFFFFFFFFFFFFFFFFFFFFFFFFFFBE
:10421000FFFFFFFFFFFFFFFFFFFFFFFFFFFFFFFFAE
:10422000C9A5A5FF660000FF650000FF130E0FFF84
:104230000E0F10FF0E0F10FF0E0F10FF140F10FFC8
:10424000870808FFD90303FFD90303FFE217178884
:10425000FC636300FA505000F7101000F6090900E3
:10426000F5121200E8161600AC1010007B463C0058
:10427000898778009B9B8F00B8B8AF0092928E0020
:10428000DFDFDC00F0F0EF00BFBFBF00D2D2D20012
:10429000F0F0F000DBDBDB00B7B7B7008282820012
:1042A000E3E3E300E2E2E200D2D3D300D2D3D300CF
:1042B000DDDDDD00D2D3D300D2D3D300D2D3D300FF
:1042C000E5E5E500F2F2F200F2F2F200F2F2F200BD
:1042D000F2F2F200F2F2F200F1F1F100A1A1A1007C
:1042E00015161600D2D2CD00E0DFD600CAC9BC0038
:1042F000AAA99700866959009A131200DF161600C2
:10430000F4141400F6090900F60E0E00FA474700EF
:10431000FD676700EA28284ED90303FDD90303FF90
:10432000B70505FF260E0FFF0E0F10FF0E0F10FF33
:104330000E0F10FF0E0F10FF6A0A0BFFA10707FFF9
:10434000BB4D4DFFFFFFFFFFFFFFFFFFFFFFFFFF25
:10435000FFFFFFFFFFFFFFFFFFFFFFFFFFFFFFFF6D
:10436000FFFFFFFFFFFFFFFFFFFFFFFFFFFFFFFF5D
:10437000FFFFFFFFFFFFFFFFFFFFFFFFFFFFFFFF4D
:10438000FFFFFFFFFFFFFFFFFFFFFFFFFFFFFFFF3D
:10439000FFFFFFFFFFFFFFFFFFFFFFFFFFFFFFFF2D
:1043A000FFFFFFFFFFFFFFFFFFFFFFFFFFFFFFFF1D
:1043B000C9A5A5FF660000FF650000FF130E0FFFF3
:1043C0000E0F10FF0E0F10FF1B0E0FFF9F0607FFB3
:1043D000D90303FFD90303FFDC0707CAF94A4A07D9
:1043E000FB5A5A00F7161600F6090900F5111100DC
:1043F000E9161600AC1010007B4B40008B8A7A0047
:10440000A1A09500BFBFB7008D8D8B0014151600BD
:10441000E1E1E100BABABB001D1E1F00B6B7B7004C
:10442000F0F0F000CFCFCF00919191009B9B9B00CB
:104430005D5D5D00ECECEC00F2F2F200F2F2F200F5
:10444000F2F2F200F2F2F200F2F2F200F2F2F20014
:10445000F2F2F200F2F2F200F2F2F200F2F2F20004
:10446000F2F2F200F2F2F200F2F2F200DFE0E0002B
:1044700013141500D7D7D600EDECE900E4E4DC0016
:10448000D2D1C500B2B1A0008B7061009A141300A4
:10449000E0171700F4141400F6090900F7111100D1
:1044A000FB535300FC545400E1101094D90303FF54
:1044B000D90303FFC40405FF370D0DFF0E0F10FFD6
:1044C0000E0F10FF0E0F10FF6A0A0BFFA10707FF68
:1044D000BB4D4DFFFFFFFFFFFFFFFFFFFFFFFFFF94
:1044E000FFFFFFFFFFFFFFFFFFFFFFFFFFFFFFFFDC
:1044F000FFFFFFFFFFFFFFFFFFFFFFFFFFFFFFFFCC
:10450000FFFFFFFFFFFFFFFFFFFFFFFFFFFFFFFFBB
:10451000FFFFFFFFFFFFFFFFFFFFFFFFFFFFFFFFAB
:10452000FFFFFFFFFFFFFFFFFFFFFFFFFFFFFFFF9B
:10453000FFFFFFFFFFFFFFFFFFFFFFFFFFFFFFFF8B
:10454000C9A5A5FF660000FF650000FF130E0FFF61
:104550000E0F10FF260E0EFFB40506FFD90303FF52
:10456000D90303FFD90303F7F026262EFC5A5A007D
:10457000F8242400F6090900F60E0E00ED161600C8
:10458000B51111007B443A008C8A7A00A3A39800ED
:10459000C6C6BF00E2E2DE00D4D3D2001415160076
:1045A000E2E2E200F3F3F30025262700B6B7B700F6
:1045B000EFEFEF00CACACA00636363008D8D8D0000
:1045C0002B2B2B0065656500F2F2F200F2F2F2008F
:1045D000F2F2F200F2F2F200F2F2F200F2F2F20083
:1045E000F2F2F200F2F2F200F2F2F200F2F2F20073
:1045F000F2F2F200F2F2F200F2F2F200DFE0E0009A
:1046000013141500D9D9D900F0F0EF00EDEDEA0050
:10461000E7E6E000D6D6C900B7B6A3008C6D5D0012
:10462000A1121100E61A1A00F5121200F60909008B
:10463000F71C1C00FB5A5A00F733330EDA0404DC73
:10464000D90303FFD90303FFCE0404FF480C0CFF7A
:104650000E0F10FF0E0F10FF6A0A0BFFA10707FFD6
:10466000BB4D4DFFFFFFFFFFFFFFFFFFFFFFFFFF02
:10467000FFFFFFFFFFFFFFFFFFFFFFFFFFFFFFFF4A
:10468000FFFFFFFFFFFFFFFFFFFFFFFFFFFFFFFF3A
:10469000FFFFFFFFFFFFFFFFFFFFFFFFFFFFFFFF2A
:1046A000FFFFFFFFFFFFFFFFFFFFFFFFFFFFFFFF1A
:1046B000FFFFFFFFFFFFFFFFFFFFFFFFFFFFFFFF0A
:1046C000FFFFFFFFFFFFFFFFFFFFFFFFFFFFFFFFFA
:1046D000C9A5A5FF660000FF650000FF130E0FFFD0
:1046E000320D0EFFC00505FFD90303FFD90303FFF9
:1046F000D90303FFE20A0A88FD444400F93939006E
:10470000F60B0B00F60B0B00F2161600C613130087
:104710007E322B0089877700A2A19600C7C7C00010
:10472000E4E4E000EFEFEE00D4D4D300131415005E
:10473000DFDFDF00F2F2F20024252600B2B2B30080
:10474000EDEDED00BDBDBD002C2C2C002F2F2F005A
:104750001515150049494900F2F2F200F2F2F20093
:10476000F2F2F200F2F2F200F2F2F200F2F2F200F1
:10477000F2F2F200F2F2F200F2F2F200F2F2F200E1
:10478000F2F2F200F2F2F200F1F1F100AAABAB00AA
:1047900075767600A3A4A400F1F0F000F0F0EF002D
:1047A000EEEEEB00E7E7E000D7D7C900B7B5A2000F
:1047B00088594C00B2111100ED1E1E00F60E0E00BD
:1047C000F60A0A00F9313100FC4A4A00EA10104E9C
:1047D000D90303FDD90303FFD90303FFD60303FF66
:1047E0005D0A0BFF0E0F10FF6A0A0BFFA10707FF00
:1047F000BB4D4DFFFFFFFFFFFFFFFFFFFFFFFFFF71
:10480000FFFFFFFFFFFFFFFFFFFFFFFFFFFFFFFFB8
:10481000FFFFFFFFFFFFFFFFFFFFFFFFFFFFFFFFA8
:10482000FFFFFFFFFFFFFFFFFFFFFFFFFFFFFFFF98
:10483000FFFFFFFFFFFFFFFFFFFFFFFFFFFFFFFF88
:10484000FFFFFFFFFFFFFFFFFFFFFFFFFFFFFFFF78
:10485000FFFFFFFFFFFFFFFFFFFFFFFFFFFFFFFF68
:10486000CBA5A5FF6B0000FF6A0000FF560A0BFFF7
:10487000CF0304FFD90303FFD90303FFD90303FFC9
:10488000DA0303E8F5181810FB484800F712120085
:10489000F6090900F4141400DB151500891D1A002F
:1048A000857E6E009E9C9000C3C3BB00E3E3DF00E7
:1048B000EFEFEE00F0F0EF00A9A9A9008D8D8E00BA
:1048C000AEAEAE00BCBCBC008E8E8F009D9D9E0027
:1048D000E1E1E200BDBDBD00616161002222220074
:1048E0000F0F0F00C7C7C700F2F2F200F1F1F1009D
:1048F000F2F2F200EDD9D900F2F2F200F2F2F20097
:10490000F2F2F200F2F2F200F2F2F200F2F2F2004F
:10491000F2F2F200F2F2F200F2F2F200F2F2F2003F
:10492000F2F2F200F2F2F200F2F2F200F2F1F10031
:10493000F0F0EF00EDEDEA00E7E6DE00D5D4C500CB
:10494000B1AF9A0086393100CA151500F421210053
:10495000F60A0A00F70E0E00FA444400FA1E1E0280
:10496000DD0303BAD90303FFD90303FFD90303FF10
:10497000D60303FF7A0909FF6E0A0BFFA00707FFA2
:10498000BB4D4DFFFFFFFFFFFFFFFFFFFFFFFFFFDF
:10499000FFFFFFFFFFFFFFFFFFFFFFFFFFFFFFFF27
:1049A000FFFFFFFFFFFFFFFFFFFFFFFFFFFFFFFF17
:1049B000FFFFFFFFFFFFFFFFFFFFFFFFFFFFFFFF07
:1049C000FFFFFFFFFFFFFFFFFFFFFFFFFFFFFFFFF7
:1049D000FFFFFFFFFFFFFFFFFFFFFFFFFFFFFFFFE7
:1049E000FFFFFFFFFFFFFFFFFFFFFFFFFFFFFFFFD7
:1049F000F1A6A6FFD60303FFD60303FFD90303FFE7
:104A0000D90303FFD90303FFD90303FFD90303FF2E
:104A1000E5020275FC2D2D00F8282800F609090092
:104A2000F60F0F00EB161600A51110007E6456005D
:104A300096958800BCBBB200DFDFDB00EFEEED0037
:104A4000F2F1F100F2F2F200F2F2F200F2F2F20010
:104A5000F2F2F200F2F2F200F2F2F200F2F2F200FE
:104A6000EAEAEA00C4C4C400B8B8B8009A9A9A0046
:104A70000F0F0F009A9A9A00CFCFCF00D6D6D6004C
:104A8000E6E5E500EAC2C200E9E9E900DCDCDC00B9
:104A9000DFDFDF00F0F0F000F2F2F200F2F2F200FD
:104AA000F2F2F200F2F2F200F2F2F200F2F2F200AE
:104AB000F2F2F200F2F2F200F2F2F200F2F2F2009E
:104AC000F2F2F200F0F0EF00EDECE900E4E4DB00DC
:104AD000CFCEBE00A59B8700921A1800E11E1E00D3
:104AE000F61B1B00F6090900F8212100FB353500F3
:104AF000ED02023CD90303FDD90303FFD90303FFF1
:104B0000D90303FFDA0303FFD00404FFD10404FF39
:104B1000DE4A4AFFFFFFFFFFFFFFFFFFFFFFFFFF30
:104B2000FFFFFFFFFFFFFFFFFFFFFFFFFFFFFFFF95
:104B3000FFFFFFFFFFFFFFFFFFFFFFFFFFFFFFFF85
:104B4000FFFFFFFFFFFFFFFFFFFFFFFFFFFFFFFF75
:104B5000FFFFFFFFFFFFFFFFFFFFFFFFFFFFFFFF65
:104B6000FFFFFFFFFFFFFFFFFFFFFFFFFFFFFFFF55
:104B7000FFFFFFFFFFFFFFFFFFFFFFFFFFFFFFFF45
:104B8000F2A6A6FFD90303FFD90303FFD90303FF4E
:104B9000D90303FFD90303FFD90303FFD90303EBB1
:104BA000F4050511FA353500F70E0E00F60A0A0075
:104BB000F4161600CB1313007D3830008E8D7D0067
:104BC000B0AFA500D8D8D200EDEDEA00F1F1F100C8
:104BD000F2F2F200F2F2F200F2F2F200F2F2F2007D
:104BE000F2F2F200F2F2F200F2F2F200F2F2F2006D
:104BF000F1F1F100DDDDDD00BEBEBE00B0B0B00001
:104C0000333333005F5F5F00DBDBDB00E8E8E800A5
:104C1000EAE9E900EDD2D200DFDFDF00E3E3E30001
:104C2000CCCCCC00C6C6C600DFDFDF00F1F2F2005C
:104C3000F0E4E400F2F2F200F2F2F200F2F2F2003A
:104C4000F2F2F200F2F2F200F2F2F200F2F2F2000C
:104C5000F2F2F200F2F1F100F1F0EF00EDEDE80018
:104C6000E0E0D400C6C4B200916A5A00B411110049
:104C7000F12A2A00F60D0D00F60C0C00FA3535006D
:104C8000F8090902DC0303BFD90303FFD90303FFBB
:104C9000D90303FFD90303FFD90303FFD90303FF9C
:104CA000E44A4AFFFFFFFFFFFFFFFFFFFFFFFFFF99
:104CB000FFFFFFFFFFFFFFFFFFFFFFFFFFFFFFFF04
:104CC000FFFFFFFFFFFFFFFFFFFFFFFFFFFFFFFFF4
:104CD000FFFFFFFFFFFFFFFFFFFFFFFFFFFFFFFFE4
:104CE000FFFFFFFFFFFFFFFFFFFFFFFFFFFFFFFFD4
:104CF000FFFFFFFFFFFFFFFFFFFFFFFFFFFFFFFFC4
:104D0000FFFFFFFFFFFFFFFFFFFFFFFFFFFFFFFFB3
:104D1000F2A6A6FFD90303FFD90303FFD90303FFBC
:104D2000D90303FFD90303FFD90303FFE102028E76
:104D3000FA121200F8232300F6090900F6111100F7
:104D4000E81616009813120083786800A1A093005B
:104D5000CCCCC400E9E9E600F1F1F000F2F2F20097
:104D6000F2F2F200F2F2F200F2F2F200F2F2F200EB
:104D7000F2F2F200F2F2F200F2F2F200EDD3D3001E
:104D8000F0E5E500D7D7D700CFCFCF00ABABAB0076
:104D90006161610037373700EFEFEF00F2F2F200A8
:104DA000F2F2F200F2F2F200F2F2F200F1F1F100AE
:104DB000F1F1F100E1E1E100C7C7C700EDD2D20097
:104DC000EDD3D300F2F2F200F2F2F200F2F2F200CE
:104DD000F2F2F200F2F2F200F2F2F200F2F2F2007B
:104DE000F2F2F200D3D4D40079797900787878009F
:104DF00076767300D8D7C900B7B49E008B272300FE
:104E0000DC1D1D00F6242400F6090900F81E1E0012
:104E1000FA191900E8020252D90303FFD90303FF6C
:104E2000D90303FFD90303FFD90303FFD90303FF0A
:104E3000E44A4AFFFFFFFFFFFFFFFFFFFFFFFFFF07
:104E4000FFFFFFFFFFFFFFFFFFFFFFFFFFFFFFFF72
:104E5000FFFFFFFFFFFFFFFFFFFFFFFFFFFFFFFF62
:104E6000FFFFFFFFFFFFFFFFFFFFFFFFFFFFFFFF52
:104E7000FFFFFFFFFFFFFFFFFFFFFFFFFFFFFFFF42
:104E8000FFFFFFFFFFFFFFFFFFFFFFFFFFFFFFFF32
:104E9000FFFFFFFFFFFFFFFFFFFFFFFFFFFFFFFF22
:104EA000F2A6A6FFD90303FFD90303FFD90303FF2B
:104EB000D90303FFD90303FFD90303FCEC02022C3F
:104EC000FA1E1E00F7101000F60A0A00F41616006B
:104ED000CA1313007D3F360092918200BAB9B00028
:104EE000E2E1DC00F1F1F000F2F2F200F2F2F200A5
:104EF000F4F4F400F3F3F300F2F2F200F2F2F20051
:104F0000F2F2F200F2F2F200E9E9E900E8E8E80082
:104F1000E7B1B100F2F2F200EBEBEB00C7C7C7005C
:104F20008A8A8A0025252500C6C6C600F2F2F2004C
:104F3000F2F2F200F2F2F200F2F2F200F2F2F20019
:104F4000F2F2F200F2F2F200F2F2F200EBCBCB005E
:104F5000F2F2F200CECECE00F2F2F200F2F2F20065
:104F6000F2F2F200F2F2F200F2F2F200F2F2F200E9
:104F7000F2F2F200ABABAC0077787800B3B3B400D8
:104F800014151600D7D6CD00CECDBA00997867009B
:104F9000B3111100F1303000F60F0F00F60D0D00C7
:104FA000F9212100F3010109DA0303E4D90303FF26
:104FB000D90303FFD90303FFD90303FFD90303FF79
:104FC000E44A4AFFFFFFFFFFFFFFFFFFFFFFFFFF76
:104FD000FFFFFFFFFFFFFFFFFFFFFFFFFFFFFFFFE1
:104FE000FFFFFFFFFFFFFFFFFFFFFFFFFFFFFFFFD1
:104FF000FFFFFFFFFFFFFFFFFFFFFFFFFFFFFFFFC1
:10500000FFFFFFFFFFFFFFFFFFFFFFFFFFFFFFFFB0
:10501000FFFFFFFFFFFFFFFFFFFFFFFFFFFFFFFFA0
:10502000FFFFFFFFFFFFFFFFFFFFFFFFFFFFFFFF90
:10503000F2A6A6FFD90303FFD90303FFD90303FF99
:10504000D90303FFD90303FFDB0303CDF5020201FC
:10505000F91D1D00F60A0A00F60F0F00EC161600E7
:105060009E11100083756500A5A49700BFBEB70010
:105070008E8E8D0076777700F2F2F2009393930094
:105080008484850070717100BABABB00F2F2F2003C
:10509000F2F2F200ECECEC00DFDFDF00C3C3C30090
:1050A000F1EDED00F2F2F200F1F1F100D4D4D40010
:1050B000B4B4B4002929290083838300F2F2F200FA
:1050C000F2F2F200F2F2F200F2F2F200F2F2F20088
:1050D000F2F2F200F2F2F200F2F2F200F2F2F20078
:1050E000DFDFDF00E3E3E300CDCDCD00F2F2F2003D
:1050F000F2F2F200F2F2F200F2F2F200F2F2F20058
:10510000F2F2F200F2F2F100BABABA007A7A7B0057
:10511000B4B4B200E9E8E100DCDBCC00BCB9A20029
:105120008F221E00E3212100F6242400F609090045
:10513000F81C1C00F7030300E0020291D90303FFEF
:10514000D90303FFD90303FFD90303FFD90303FFE7
:10515000E44A4AFFFFFFFFFFFFFFFFFFFFFFFFFFE4
:10516000FFFFFFFFFFFFFFFFFFFFFFFFFFFFFFFF4F
:10517000FFFFFFFFFFFFFFFFFFFFFFFFFFFFFFFF3F
:10518000FFFFFFFFFFFFFFFFFFFFFFFFFFFFFFFF2F
:10519000FFFFFFFFFFFFFFFFFFFFFFFFFFFFFFFF1F
:1051A000FFFFFFFFFFFFFFFFFFFFFFFFFFFFFFFF0F
:1051B000FFFFFFFFFFFFFFFFFFFFFFFFFFFFFFFFFF
:1051C000F2A6A6FFD90303FFD90303FFD90303FF08
:1051D000D90303FFD90303FFE102027FF7060600AC
:1051E000F8141400F6090900F5151500D914140077
:1051F000822D2700908F7F00BAB9AF00DBDAD5008F
:10520000696A690069696A00CDCECE001112130087
:10521000E1E1E100A8A8A90028292A00EFEFEF00AA
:10522000F1F1F100D7D7D700CDCDCD00F1F1F100EC
:10523000F2F2F200F2F2F200F2F2F200E0E0E0004C
:10524000BEBEBE004A4A4A0047474700F2F2F2009B
:10525000F2F2F200F2F2F200F2F2F200F2F2F200F6
:10526000F2F2F200F2F2F200F2F2F200F2F2F200E6
:10527000F2F2F200E2E2E200DDDDDD00D3D3D300A2
:10528000F2F2F200F2F2F200F2F2F200F2F2F200C6
:10529000F2F2F20098989800212222002C2C2D0086
:1052A0002B2B2C00BEBEBA00E2E2D700CECCB80059
:1052B00094605200C6141400F5343400F60A0A0053
:1052C000F7121200F7090900E8020244D90303FFAC
:1052D000D90303FFD90303FFD90303FFD90303FF56
:1052E000E44A4AFFFFFFFFFFFFFFFFFFFFFFFFFF53
:1052F000FFFFFFFFFFFFFFFFFFFFFFFFFFFFFFFFBE
:10530000FFFFFFFFFFFFFFFFFFFFFFFFFFFFFFFFAD
:10531000FFFFFFFFFFFFFFFFFFFFFFFFFFFFFFFF9D
:10532000FFFFFFFFFFFFFFFFFFFFFFFFFFFFFFFF8D
:10533000FFFFFFFFFFFFFFFFFFFFFFFFFFFFFFFF7D
:10534000FFFFFFFFFFFFFFFFFFFFFFFFFFFFFFFF6D
:10535000F2A6A6FFD90303FFD90303FFD90303FF76
:10536000D90303FFD90303FEE9020239F70A0A0051
:10537000F70D0D00F60B0B00F3171700BC11110011
:105380007D574B009F9E8F00CECDC500EBEAE70016
:105390007272730069696A00BEBEBE00111213000A
:1053A000E7E7E700B0B0B1001B1C1C00EBEBEB0023
:1053B000DBDBDB00D8D8D800E6E6E600F2F2F2004C
:1053C000F2F2F200F2F2F200F2F2F200EBEBEB009A
:1053D000C2C2C200737373001E1E1E00E1E1E10031
:1053E000F2F2F200F2F2F200F2F2F200F2F2F20065
:1053F000F2F2F200F2F2F200F2F2F200F2F2F20055
:10540000F2F2F200F2F2F200E4E4E400D0D0D000D4
:10541000E0E0E000F2F2F200F2F2F200F2F2F2006A
:10542000F2F2F200EAEAEA00E2E2E200E2E2E2009C
:10543000E2E2E200EBEBE800E7E6DE00D9D7C700E6
:10544000AFA18B00A30F0F00EF2E2E00F617170051
:10545000F60B0B00F70C0C00EF02020BD90303F064
:10546000D90303FFD90303FFD90303FFD90303FFC4
:10547000E44A4AFFFFFFFFFFFFFFFFFFFFFFFFFFC1
:10548000FFFFFFFFFFFFFFFFFFFFFFFFFFFFFFFF2C
:10549000FFFFFFFFFFFFFFFFFFFFFFFFFFFFFFFF1C
:1054A000FFFFFFFFFFFFFFFFFFFFFFFFFFFFFFFF0C
:1054B000FFFFFFFFFFFFFFFFFFFFFFFFFFFFFFFFFC
:1054C000FFFFFFFFFFFFFFFFFFFFFFFFFFFFFFFFEC
:1054D000FFFFFFFFFFFFFFFFFFFFFFFFFFFFFFFFDC
:1054E000F2A6A6FFD90303FFD90303FFD90303FFE5
:1054F000D90303FFD90303EEEF02020CF80A0A00F6
:10550000F60A0A00F6101000ED1616009C111100A4
:10551000867E6D00B0AFA200DCDCD500D9D8D60005
:10552000545454004B4B4C00D5D6D6005253540023
:105530009C9C9D006D6D6E0085858500F2F2F200E9
:10554000E5E5E500D7D7D700F2F2F200F2F2F2007B
:10555000F2F2F200F2F2F200F2F2F200F0F0F000F9
:10556000CDCDCD00A4A4A4001A1A1A00A4A4A400AE
:10557000F2F2F200F2F2F200F2F2F200F2F2F200D3
:10558000F2F2F200F2F2F200F2F2F200F2F2F200C3
:10559000F2F2F200F2F2F200F2F2F200E6E5E500D9
:1055A000EAC5C500ECD0D000F2F2F200F2F2F2004F
:1055B000F2F2F200F2F2F200F2F2F200F2F2F20093
:1055C000F2F2F200F0F0EE00EAE9E400DEDDD000F5
:1055D000C6C4AC0090272200E3212100F628280051
:1055E000F6090900F70C0C00F3010100DB0303BD11
:1055F000D90303FFD90303FFD90303FFD90303FF33
:10560000E44A4AFFFFFFFFFFFFFFFFFFFFFFFFFF2F
:10561000FFFFFFFFFFFFFFFFFFFFFFFFFFFFFFFF9A
:10562000FFFFFFFFFFFFFFFFFFFFFFFFFFFFFFFF8A
:10563000FFFFFFFFFFFFFFFFFFFFFFFFFFFFFFFF7A
:10564000FFFFFFFFFFFFFFFFFFFFFFFFFFFFFFFF6A
:10565000FFFFFFFFFFFFFFFFFFFFFFFFFFFFFFFF5A
:10566000FFFFFFFFFFFFFFFFFFFFFFFFFFFFFFFF4A
:10567000F2A6A6FFD90303FFD90303FFD90303FF53
:10568000D90303FFDB0303C3F3010100F60A0A0099
:10569000F5090900F5131300E115150088231F0013
:1056A00092918000BFBFB400E5E5DF00ECEBEA00BB
:1056B000E6E6E600E6E6E600EDEDED00F1F1F100EC
:1056C000D4D4D400DDDDDD00F1EBEB00E8B7B700AA
:1056D000EBC8C800F2F2F200F2F2F200F2F2F200CD
:1056E000F2F2F200F2F2F200F2F2F200F2F2F20062
:1056F000DBDBDB00BEBEBE002D2D2D006262620032
:10570000F2F2F200F2F2F200F2F2F200F2F2F20041
:10571000F2F2F200F2F2F200F2F2F200F2F2F20031
:10572000F2F2F200F2F2F200F2F2F200EFDDDD004E
:10573000EFE2E200F2F2F200F2F2F200F2F2F20034
:10574000F2F2F200F2F2F200F2F2F200F2F2F20001
:10575000F2F2F200F1F1F000ECECE800E3E1D70046
:10576000D0CEB90093534700D1161600F636360056
:10577000F5090900F60B0B00F4010100E1020287B4
:10578000D90303FFD90303FFD90303FFD90303FFA1
:10579000E44A4AFFFFFFFFFFFFFFFFFFFFFFFFFF9E
:1057A000FFFFFFFFFFFFFFFFFFFFFFFFFFFFFFFF09
:1057B000FFFFFFFFFFFFFFFFFFFFFFFFFFFFFFFFF9
:1057C000FFFFFFFFFFFFFFFFFFFFFFFFFFFFFFFFE9
:1057D000FFFFFFFFFFFFFFFFFFFFFFFFFFFFFFFFD9
:1057E000FFFFFFFFFFFFFFFFFFFFFFFFFFFFFFFFC9
:1057F000FFFFFFFFFFFFFFFFFFFFFFFFFFFFFFFFB9
:10580000F2A6A6FFD90303FFD90303FFD90303FFC1
:10581000D90303FFDF020298F1010100EF0909003B
:10582000ED090900EC151600CC1414007D3C340081
:105830009C9A8B00CDCCC200EBEAE600F1F1F000BF
:10584000F2F2F200F2F2F200F2F2F200F2F2F20000
:10585000F2F2F200F2F2F200ECECEC00D1D1D10065
:10586000EFE7E700F2F2F200F2F2F200F2F2F200F9
:10587000F2F2F200F2F2F200F2F2F200F2F2F200D0
:10588000E6E6E600BFBFBF005C5C5C0024242400A9
:10589000F1F1F100F2F2F200F2F2F200F2F2F200B3
:1058A000F2F2F200F2F2F200F2F2F200F2F2F200A0
:1058B000F2F2F200F2F2F200F2F2F200F2F2F20090
:1058C000DADADA00CCCCCC00F2F2F200F2F2F2003A
:1058D000F2F2F200F2F2F200F2F2F200F2F2F20070
:1058E000F2F2F200F2F1F100EEEEEB00E5E4DB00A3
:1058F000D6D5C2009F7C6A00B6111200ED3839007F
:10590000ED0C0C00EE0A0A00F0010100E501015B5C
:10591000D90303FFD90303FFD90303FFD90303FF0F
:10592000E44A4AFFFFFFFFFFFFFFFFFFFFFFFFFF0C
:10593000FFFFFFFFFFFFFFFFFFFFFFFFFFFFFFFF77
:10594000FFFFFFFFFFFFFFFFFFFFFFFFFFFFFFFF67
:10595000FFFFFFFFFFFFFFFFFFFFFFFFFFFFFFFF57
:10596000FFFFFFFFFFFFFFFFFFFFFFFFFFFFFFFF47
:10597000FFFFFFFFFFFFFFFFFFFFFFFFFFFFFFFF37
:10598000FFFFFFFFFFFFFFFFFFFFFFFFFFFFFFFF27
:10599000F2A6A6FFD90303FFD90303FFD90303FF30
:1059A000D90303FFE1020274E9000000E1090900E4
:1059B000DE0A0A00DB151600B0111200795247000A
:1059C000A6A59600D7D6CD00EDEDEA00F2F1F100E4
:1059D000F2F2F200F2F2F200F2F2F200F2F2F2006F
:1059E000F2F2F200F2F2F200E8E8E800E5E5E500A4
:1059F000E8E8E800F2F2F200F2F2F200F2F2F2006D
:105A0000F2F2F200F2F2F200F2F2F200F2F2F2003E
:105A1000EEEEEE00C7C7C7008A8A8A000F0F0F009C
:105A2000C5C5C500F2F2F200F2F2F200F2F2F200A5
:105A3000F2F2F200F2F2F200F2F2F200F2F2F2000E
:105A4000F2F2F200F2F2F200F2F2F200F2F2F200FE
:105A5000EDEDED00C7C7C700E6E6E600F2F2F200A2
:105A6000F2F2F200F2F2F200F2F2F200F2F2F200DE
:105A7000F2F2F200F2F2F200EFEFED00E7E7DF0002
:105A8000DAD9C800B0A08A00980D0F00DC313300CD
:105A9000DF131300DF090900E7010100E601023806
:105AA000D90303FFD90303FFD90303FFD90303FF7E
:105AB000E44A4AFFFFFFFFFFFFFFFFFFFFFFFFFF7B
:105AC000FFFFFFFFFFFFFFFFFFFFFFFFFFFFFFFFE6
:105AD000FFFFFFFFFFFFFFFFFFFFFFFFFFFFFFFFD6
